{
  "_format": "hh-sol-artifact-1",
  "contractName": "Ticket",
  "sourceName": "contracts/Ticket.sol",
  "abi": [
    {
      "inputs": [
        {
          "internalType": "contract Show",
          "name": "_show",
          "type": "address"
        }
      ],
      "stateMutability": "nonpayable",
      "type": "constructor"
    },
    {
      "anonymous": false,
      "inputs": [
        {
          "indexed": true,
          "internalType": "address",
          "name": "owner",
          "type": "address"
        },
        {
          "indexed": true,
          "internalType": "address",
          "name": "approved",
          "type": "address"
        },
        {
          "indexed": true,
          "internalType": "uint256",
          "name": "tokenId",
          "type": "uint256"
        }
      ],
      "name": "Approval",
      "type": "event"
    },
    {
      "anonymous": false,
      "inputs": [
        {
          "indexed": true,
          "internalType": "address",
          "name": "owner",
          "type": "address"
        },
        {
          "indexed": true,
          "internalType": "address",
          "name": "operator",
          "type": "address"
        },
        {
          "indexed": false,
          "internalType": "bool",
          "name": "approved",
          "type": "bool"
        }
      ],
      "name": "ApprovalForAll",
      "type": "event"
    },
    {
      "anonymous": false,
      "inputs": [
        {
          "indexed": false,
          "internalType": "uint256",
          "name": "_tokenId",
          "type": "uint256"
        }
      ],
      "name": "TicketCreated",
      "type": "event"
    },
    {
      "anonymous": false,
      "inputs": [
        {
          "indexed": false,
          "internalType": "uint256",
          "name": "_tokenId",
          "type": "uint256"
        }
      ],
      "name": "TicketOffered",
      "type": "event"
    },
    {
      "anonymous": false,
      "inputs": [
        {
          "indexed": true,
          "internalType": "address",
          "name": "from",
          "type": "address"
        },
        {
          "indexed": true,
          "internalType": "address",
          "name": "to",
          "type": "address"
        },
        {
          "indexed": true,
          "internalType": "uint256",
          "name": "tokenId",
          "type": "uint256"
        }
      ],
      "name": "Transfer",
      "type": "event"
    },
    {
      "inputs": [
        {
          "internalType": "address",
          "name": "to",
          "type": "address"
        },
        {
          "internalType": "uint256",
          "name": "tokenId",
          "type": "uint256"
        }
      ],
      "name": "approve",
      "outputs": [],
      "stateMutability": "nonpayable",
      "type": "function"
    },
    {
      "inputs": [
        {
          "internalType": "address",
          "name": "owner",
          "type": "address"
        }
      ],
      "name": "balanceOf",
      "outputs": [
        {
          "internalType": "uint256",
          "name": "",
          "type": "uint256"
        }
      ],
      "stateMutability": "view",
      "type": "function"
    },
    {
      "inputs": [
        {
          "internalType": "uint256",
          "name": "_tokenId",
          "type": "uint256"
        },
        {
          "internalType": "address",
          "name": "_newBuyer",
          "type": "address"
        },
        {
          "internalType": "string",
          "name": "_newBuyerName",
          "type": "string"
        }
      ],
      "name": "buyOfferedTicket",
      "outputs": [
        {
          "internalType": "uint256",
          "name": "",
          "type": "uint256"
        }
      ],
      "stateMutability": "nonpayable",
      "type": "function"
    },
    {
      "inputs": [
        {
          "internalType": "uint256",
          "name": "_tokenId",
          "type": "uint256"
        }
      ],
      "name": "checkIn",
      "outputs": [
        {
          "internalType": "bool",
          "name": "",
          "type": "bool"
        }
      ],
      "stateMutability": "nonpayable",
      "type": "function"
    },
    {
      "inputs": [
        {
          "internalType": "uint256",
          "name": "_seatTypeId",
          "type": "uint256"
        },
        {
          "internalType": "uint256",
          "name": "_seatNum",
          "type": "uint256"
        },
        {
          "internalType": "string",
          "name": "_seatName",
          "type": "string"
        },
        {
          "internalType": "uint256",
          "name": "_price",
          "type": "uint256"
        },
        {
          "internalType": "string",
          "name": "_buyerName",
          "type": "string"
        },
        {
          "internalType": "address",
          "name": "_buyer",
          "type": "address"
        }
      ],
      "name": "createTicket",
      "outputs": [
        {
          "internalType": "uint256",
          "name": "",
          "type": "uint256"
        }
      ],
      "stateMutability": "nonpayable",
      "type": "function"
    },
    {
      "inputs": [
        {
          "internalType": "uint256",
          "name": "_tokenId",
          "type": "uint256"
        }
      ],
      "name": "existTicket",
      "outputs": [
        {
          "internalType": "bool",
          "name": "",
          "type": "bool"
        }
      ],
      "stateMutability": "view",
      "type": "function"
    },
    {
      "inputs": [
        {
          "internalType": "uint256",
          "name": "tokenId",
          "type": "uint256"
        }
      ],
      "name": "getApproved",
      "outputs": [
        {
          "internalType": "address",
          "name": "",
          "type": "address"
        }
      ],
      "stateMutability": "view",
      "type": "function"
    },
    {
      "inputs": [],
      "name": "getBuyers",
      "outputs": [
        {
          "internalType": "address[]",
          "name": "",
          "type": "address[]"
        }
      ],
      "stateMutability": "view",
      "type": "function"
    },
    {
      "inputs": [
        {
          "internalType": "address",
          "name": "_buyer",
          "type": "address"
        }
      ],
      "name": "getTicketId",
      "outputs": [
        {
          "internalType": "uint256",
          "name": "",
          "type": "uint256"
        }
      ],
      "stateMutability": "view",
      "type": "function"
    },
    {
      "inputs": [
        {
          "internalType": "uint256",
          "name": "_tokenId",
          "type": "uint256"
        }
      ],
      "name": "getTicketInfo",
      "outputs": [
        {
          "components": [
            {
              "internalType": "uint256",
              "name": "ticketId",
              "type": "uint256"
            },
            {
              "internalType": "uint256",
              "name": "showId",
              "type": "uint256"
            },
            {
              "internalType": "uint256",
              "name": "seatTypeId",
              "type": "uint256"
            },
            {
              "internalType": "uint256",
              "name": "seatNum",
              "type": "uint256"
            },
            {
              "internalType": "string",
              "name": "seatName",
              "type": "string"
            },
            {
              "internalType": "uint256",
              "name": "price",
              "type": "uint256"
            },
            {
              "internalType": "enum Ticket.TicketStatus",
              "name": "status",
              "type": "uint8"
            },
            {
              "internalType": "address",
              "name": "buyer",
              "type": "address"
            },
            {
              "internalType": "string",
              "name": "buyerName",
              "type": "string"
            },
            {
              "internalType": "uint256",
              "name": "createdAt",
              "type": "uint256"
            },
            {
              "internalType": "uint256",
              "name": "updatedAt",
              "type": "uint256"
            }
          ],
          "internalType": "struct Ticket.TicketInfo",
          "name": "",
          "type": "tuple"
        }
      ],
      "stateMutability": "view",
      "type": "function"
    },
    {
      "inputs": [
        {
          "internalType": "uint256",
          "name": "_tokenId",
          "type": "uint256"
        }
      ],
      "name": "getTicketPrice",
      "outputs": [
        {
          "internalType": "uint256",
          "name": "",
          "type": "uint256"
        }
      ],
      "stateMutability": "view",
      "type": "function"
    },
    {
      "inputs": [],
      "name": "getTradableTickets",
      "outputs": [
        {
          "internalType": "uint256[]",
          "name": "",
          "type": "uint256[]"
        }
      ],
      "stateMutability": "view",
      "type": "function"
    },
    {
      "inputs": [
        {
          "internalType": "address",
          "name": "owner",
          "type": "address"
        },
        {
          "internalType": "address",
          "name": "operator",
          "type": "address"
        }
      ],
      "name": "isApprovedForAll",
      "outputs": [
        {
          "internalType": "bool",
          "name": "",
          "type": "bool"
        }
      ],
      "stateMutability": "view",
      "type": "function"
    },
    {
      "inputs": [
        {
          "internalType": "address",
          "name": "_buyer",
          "type": "address"
        }
      ],
      "name": "isBuyer",
      "outputs": [
        {
          "internalType": "bool",
          "name": "",
          "type": "bool"
        }
      ],
      "stateMutability": "view",
      "type": "function"
    },
    {
      "inputs": [
        {
          "internalType": "uint256",
          "name": "_tokenId",
          "type": "uint256"
        },
        {
          "internalType": "address",
          "name": "_caller",
          "type": "address"
        }
      ],
      "name": "isTicketBuyer",
      "outputs": [
        {
          "internalType": "bool",
          "name": "",
          "type": "bool"
        }
      ],
      "stateMutability": "view",
      "type": "function"
    },
    {
      "inputs": [],
      "name": "name",
      "outputs": [
        {
          "internalType": "string",
          "name": "",
          "type": "string"
        }
      ],
      "stateMutability": "view",
      "type": "function"
    },
    {
      "inputs": [
        {
          "internalType": "address",
          "name": "_buyer",
          "type": "address"
        },
        {
          "internalType": "uint256",
          "name": "_tokenId",
          "type": "uint256"
        }
      ],
      "name": "offerTicket",
      "outputs": [],
      "stateMutability": "nonpayable",
      "type": "function"
    },
    {
      "inputs": [],
      "name": "owner",
      "outputs": [
        {
          "internalType": "address",
          "name": "",
          "type": "address"
        }
      ],
      "stateMutability": "view",
      "type": "function"
    },
    {
      "inputs": [
        {
          "internalType": "uint256",
          "name": "tokenId",
          "type": "uint256"
        }
      ],
      "name": "ownerOf",
      "outputs": [
        {
          "internalType": "address",
          "name": "",
          "type": "address"
        }
      ],
      "stateMutability": "view",
      "type": "function"
    },
    {
      "inputs": [
        {
          "internalType": "address",
          "name": "_buyer",
          "type": "address"
        }
      ],
      "name": "removeBuyer",
      "outputs": [],
      "stateMutability": "nonpayable",
      "type": "function"
    },
    {
      "inputs": [
        {
          "internalType": "address",
          "name": "from",
          "type": "address"
        },
        {
          "internalType": "address",
          "name": "to",
          "type": "address"
        },
        {
          "internalType": "uint256",
          "name": "tokenId",
          "type": "uint256"
        }
      ],
      "name": "safeTransferFrom",
      "outputs": [],
      "stateMutability": "nonpayable",
      "type": "function"
    },
    {
      "inputs": [
        {
          "internalType": "address",
          "name": "from",
          "type": "address"
        },
        {
          "internalType": "address",
          "name": "to",
          "type": "address"
        },
        {
          "internalType": "uint256",
          "name": "tokenId",
          "type": "uint256"
        },
        {
          "internalType": "bytes",
          "name": "data",
          "type": "bytes"
        }
      ],
      "name": "safeTransferFrom",
      "outputs": [],
      "stateMutability": "nonpayable",
      "type": "function"
    },
    {
      "inputs": [
        {
          "internalType": "address",
          "name": "operator",
          "type": "address"
        },
        {
          "internalType": "bool",
          "name": "approved",
          "type": "bool"
        }
      ],
      "name": "setApprovalForAll",
      "outputs": [],
      "stateMutability": "nonpayable",
      "type": "function"
    },
    {
      "inputs": [
        {
          "internalType": "bytes4",
          "name": "interfaceId",
          "type": "bytes4"
        }
      ],
      "name": "supportsInterface",
      "outputs": [
        {
          "internalType": "bool",
          "name": "",
          "type": "bool"
        }
      ],
      "stateMutability": "view",
      "type": "function"
    },
    {
      "inputs": [],
      "name": "symbol",
      "outputs": [
        {
          "internalType": "string",
          "name": "",
          "type": "string"
        }
      ],
      "stateMutability": "view",
      "type": "function"
    },
    {
      "inputs": [
        {
          "internalType": "uint256",
          "name": "",
          "type": "uint256"
        }
      ],
      "name": "ticketInfo",
      "outputs": [
        {
          "internalType": "uint256",
          "name": "ticketId",
          "type": "uint256"
        },
        {
          "internalType": "uint256",
          "name": "showId",
          "type": "uint256"
        },
        {
          "internalType": "uint256",
          "name": "seatTypeId",
          "type": "uint256"
        },
        {
          "internalType": "uint256",
          "name": "seatNum",
          "type": "uint256"
        },
        {
          "internalType": "string",
          "name": "seatName",
          "type": "string"
        },
        {
          "internalType": "uint256",
          "name": "price",
          "type": "uint256"
        },
        {
          "internalType": "enum Ticket.TicketStatus",
          "name": "status",
          "type": "uint8"
        },
        {
          "internalType": "address",
          "name": "buyer",
          "type": "address"
        },
        {
          "internalType": "string",
          "name": "buyerName",
          "type": "string"
        },
        {
          "internalType": "uint256",
          "name": "createdAt",
          "type": "uint256"
        },
        {
          "internalType": "uint256",
          "name": "updatedAt",
          "type": "uint256"
        }
      ],
      "stateMutability": "view",
      "type": "function"
    },
    {
      "inputs": [
        {
          "internalType": "uint256",
          "name": "tokenId",
          "type": "uint256"
        }
      ],
      "name": "tokenURI",
      "outputs": [
        {
          "internalType": "string",
          "name": "",
          "type": "string"
        }
      ],
      "stateMutability": "view",
      "type": "function"
    },
    {
      "inputs": [
        {
          "internalType": "address",
          "name": "from",
          "type": "address"
        },
        {
          "internalType": "address",
          "name": "to",
          "type": "address"
        },
        {
          "internalType": "uint256",
          "name": "tokenId",
          "type": "uint256"
        }
      ],
      "name": "transferFrom",
      "outputs": [],
      "stateMutability": "nonpayable",
      "type": "function"
    },
    {
      "inputs": [
        {
          "internalType": "address",
          "name": "_buyer",
          "type": "address"
        },
        {
          "internalType": "uint256",
          "name": "_tokenId",
          "type": "uint256"
        }
      ],
      "name": "unofferTicket",
      "outputs": [],
      "stateMutability": "nonpayable",
      "type": "function"
    },
    {
      "inputs": [
        {
          "internalType": "uint256",
          "name": "_tokenId",
          "type": "uint256"
        },
        {
          "internalType": "enum Ticket.TicketStatus",
          "name": "_status",
          "type": "uint8"
        }
      ],
      "name": "updateTicketStatus",
      "outputs": [],
      "stateMutability": "nonpayable",
      "type": "function"
    }
  ],
  "bytecode": "0x60a06040523480156200001157600080fd5b5060405162005363380380620053638339818101604052810190620000379190620001c3565b6040518060400160405280600681526020017f5469636b657400000000000000000000000000000000000000000000000000008152506040518060400160405280600481526020017f5449434b000000000000000000000000000000000000000000000000000000008152508160009081620000b491906200046f565b508060019081620000c691906200046f565b5050503373ffffffffffffffffffffffffffffffffffffffff1660808173ffffffffffffffffffffffffffffffffffffffff168152505080600760006101000a81548173ffffffffffffffffffffffffffffffffffffffff021916908373ffffffffffffffffffffffffffffffffffffffff1602179055505062000556565b600080fd5b600073ffffffffffffffffffffffffffffffffffffffff82169050919050565b600062000177826200014a565b9050919050565b60006200018b826200016a565b9050919050565b6200019d816200017e565b8114620001a957600080fd5b50565b600081519050620001bd8162000192565b92915050565b600060208284031215620001dc57620001db62000145565b5b6000620001ec84828501620001ac565b91505092915050565b600081519050919050565b7f4e487b7100000000000000000000000000000000000000000000000000000000600052604160045260246000fd5b7f4e487b7100000000000000000000000000000000000000000000000000000000600052602260045260246000fd5b600060028204905060018216806200027757607f821691505b6020821081036200028d576200028c6200022f565b5b50919050565b60008190508160005260206000209050919050565b60006020601f8301049050919050565b600082821b905092915050565b600060088302620002f77fffffffffffffffffffffffffffffffffffffffffffffffffffffffffffffffff82620002b8565b620003038683620002b8565b95508019841693508086168417925050509392505050565b6000819050919050565b6000819050919050565b6000620003506200034a62000344846200031b565b62000325565b6200031b565b9050919050565b6000819050919050565b6200036c836200032f565b620003846200037b8262000357565b848454620002c5565b825550505050565b600090565b6200039b6200038c565b620003a881848462000361565b505050565b5b81811015620003d057620003c460008262000391565b600181019050620003ae565b5050565b601f8211156200041f57620003e98162000293565b620003f484620002a8565b8101602085101562000404578190505b6200041c6200041385620002a8565b830182620003ad565b50505b505050565b600082821c905092915050565b6000620004446000198460080262000424565b1980831691505092915050565b60006200045f838362000431565b9150826002028217905092915050565b6200047a82620001f5565b67ffffffffffffffff81111562000496576200049562000200565b5b620004a282546200025e565b620004af828285620003d4565b600060209050601f831160018114620004e75760008415620004d2578287015190505b620004de858262000451565b8655506200054e565b601f198416620004f78662000293565b60005b828110156200052157848901518255600182019150602085019450602081019050620004fa565b868310156200054157848901516200053d601f89168262000431565b8355505b6001600288020188555050505b505050505050565b608051614ddc62000587600039600081816109cb01528181610e600152818161128c01526117310152614ddc6000f3fe608060405234801561001057600080fd5b50600436106101da5760003560e01c806395d89b4111610104578063e95a644f116100a2578063f64bfaba11610071578063f64bfaba146105d5578063f67e15ba146105f3578063fa71308314610611578063ff99a0631461064b576101da565b8063e95a644f14610515578063e985e9c514610545578063eeca0fda14610575578063f06fc961146105a5576101da565b8063a460b817116100de578063a460b81714610491578063b88d4fde146104ad578063c87b56dd146104c9578063cb8764f4146104f9576101da565b806395d89b411461042757806395ef1aeb14610445578063a22cb46514610475576101da565b80633e98d9a91161017c57806370a082311161014b57806370a082311461038d5780637555fa82146103bd5780638da5cb5b146103d95780638e3cf247146103f7576101da565b80633e98d9a9146102f557806342842e0e146103255780636352211e146103415780636f75b00c14610371576101da565b8063095ea7b3116101b8578063095ea7b31461025d57806323b872dd146102795780632a55feec1461029557806331959257146102c5576101da565b806301ffc9a7146101df57806306fdde031461020f578063081812fc1461022d575b600080fd5b6101f960048036038101906101f49190613094565b61067b565b60405161020691906130dc565b60405180910390f35b61021761075d565b6040516102249190613187565b60405180910390f35b610247600480360381019061024291906131df565b6107ef565b604051610254919061324d565b60405180910390f35b61027760048036038101906102729190613294565b610835565b005b610293600480360381019061028e91906132d4565b61094c565b005b6102af60048036038101906102aa9190613327565b6109ac565b6040516102bc91906130dc565b60405180910390f35b6102df60048036038101906102da91906134e9565b6109c7565b6040516102ec91906135c3565b60405180910390f35b61030f600480360381019061030a91906131df565b610d7b565b60405161031c91906130dc565b60405180910390f35b61033f600480360381019061033a91906132d4565b610d8d565b005b61035b600480360381019061035691906131df565b610dad565b604051610368919061324d565b60405180910390f35b61038b60048036038101906103869190613327565b610e5e565b005b6103a760048036038101906103a29190613327565b611086565b6040516103b491906135c3565b60405180910390f35b6103d760048036038101906103d29190613294565b61113d565b005b6103e161128a565b6040516103ee919061324d565b60405180910390f35b610411600480360381019061040c91906135de565b6112ae565b60405161041e91906135c3565b60405180910390f35b61042f61163e565b60405161043c9190613187565b60405180910390f35b61045f600480360381019061045a9190613327565b6116d0565b60405161046c91906135c3565b60405180910390f35b61048f600480360381019061048a9190613679565b611719565b005b6104ab60048036038101906104a691906136de565b61172f565b005b6104c760048036038101906104c291906137bf565b6117fa565b005b6104e360048036038101906104de91906131df565b61185c565b6040516104f09190613187565b60405180910390f35b610513600480360381019061050e9190613294565b6118c4565b005b61052f600480360381019061052a91906131df565b6119a3565b60405161053c91906130dc565b60405180910390f35b61055f600480360381019061055a9190613842565b611adc565b60405161056c91906130dc565b60405180910390f35b61058f600480360381019061058a9190613882565b611b70565b60405161059c91906130dc565b60405180910390f35b6105bf60048036038101906105ba91906131df565b611bcc565b6040516105cc91906135c3565b60405180910390f35b6105dd611c36565b6040516105ea9190613980565b60405180910390f35b6105fb611cc4565b6040516106089190613a60565b60405180910390f35b61062b600480360381019061062691906131df565b611e45565b6040516106429b9a99989796959493929190613af9565b60405180910390f35b610665600480360381019061066091906131df565b611fdc565b6040516106729190613d01565b60405180910390f35b60007f80ac58cd000000000000000000000000000000000000000000000000000000007bffffffffffffffffffffffffffffffffffffffffffffffffffffffff1916827bffffffffffffffffffffffffffffffffffffffffffffffffffffffff1916148061074657507f5b5e139f000000000000000000000000000000000000000000000000000000007bffffffffffffffffffffffffffffffffffffffffffffffffffffffff1916827bffffffffffffffffffffffffffffffffffffffffffffffffffffffff1916145b8061075657506107558261224f565b5b9050919050565b60606000805461076c90613d52565b80601f016020809104026020016040519081016040528092919081815260200182805461079890613d52565b80156107e55780601f106107ba576101008083540402835291602001916107e5565b820191906000526020600020905b8154815290600101906020018083116107c857829003601f168201915b5050505050905090565b60006107fa826122b9565b6004600083815260200190815260200160002060009054906101000a900473ffffffffffffffffffffffffffffffffffffffff169050919050565b600061084082610dad565b90508073ffffffffffffffffffffffffffffffffffffffff168373ffffffffffffffffffffffffffffffffffffffff16036108b0576040517f08c379a00000000000000000000000000000000000000000000000000000000081526004016108a790613df5565b60405180910390fd5b8073ffffffffffffffffffffffffffffffffffffffff166108cf612304565b73ffffffffffffffffffffffffffffffffffffffff1614806108fe57506108fd816108f8612304565b611adc565b5b61093d576040517f08c379a000000000000000000000000000000000000000000000000000000000815260040161093490613e87565b60405180910390fd5b610947838361230c565b505050565b61095d610957612304565b826123c5565b61099c576040517f08c379a000000000000000000000000000000000000000000000000000000000815260040161099390613f19565b60405180910390fd5b6109a783838361245a565b505050565b6000806109b8836126c0565b90508060000151915050919050565b60007f000000000000000000000000000000000000000000000000000000000000000073ffffffffffffffffffffffffffffffffffffffff163373ffffffffffffffffffffffffffffffffffffffff1614610a2157600080fd5b610a2b60066127aa565b6000610a3760066127c0565b9050610a4383826127ce565b6008839080600181540180825580915050600190039060005260206000200160009091909190916101000a81548173ffffffffffffffffffffffffffffffffffffffff021916908373ffffffffffffffffffffffffffffffffffffffff16021790555080600960008573ffffffffffffffffffffffffffffffffffffffff1673ffffffffffffffffffffffffffffffffffffffff16815260200190815260200160002081905550604051806101600160405280828152602001600760009054906101000a900473ffffffffffffffffffffffffffffffffffffffff1673ffffffffffffffffffffffffffffffffffffffff166309f210966040518163ffffffff1660e01b8152600401602060405180830381865afa158015610b69573d6000803e3d6000fd5b505050506040513d601f19601f82011682018060405250810190610b8d9190613f4e565b81526020018a815260200189815260200188815260200187815260200160006002811115610bbe57610bbd613a82565b5b81526020018473ffffffffffffffffffffffffffffffffffffffff16815260200186868080601f016020809104026020016040519081016040528093929190818152602001838380828437600081840152601f19601f82011690508083019250505050505050815260200142815260200142815250600a6000838152602001908152602001600020600082015181600001556020820151816001015560408201518160020155606082015181600301556080820151816004019081610c839190614127565b5060a0820151816005015560c08201518160060160006101000a81548160ff02191690836002811115610cb957610cb8613a82565b5b021790555060e08201518160060160016101000a81548173ffffffffffffffffffffffffffffffffffffffff021916908373ffffffffffffffffffffffffffffffffffffffff160217905550610100820151816007019081610d1b9190614127565b50610120820151816008015561014082015181600901559050507f017816d6671654d29260799b31a628be724d7e4fa8e22da3fae8ab443ec0a3c381604051610d6491906135c3565b60405180910390a180915050979650505050505050565b6000610d86826127ec565b9050919050565b610da8838383604051806020016040528060008152506117fa565b505050565b6000806002600084815260200190815260200160002060009054906101000a900473ffffffffffffffffffffffffffffffffffffffff169050600073ffffffffffffffffffffffffffffffffffffffff168173ffffffffffffffffffffffffffffffffffffffff1603610e55576040517f08c379a0000000000000000000000000000000000000000000000000000000008152600401610e4c90614245565b60405180910390fd5b80915050919050565b7f000000000000000000000000000000000000000000000000000000000000000073ffffffffffffffffffffffffffffffffffffffff163373ffffffffffffffffffffffffffffffffffffffff1614610eb657600080fd5b6000610ec1826126c0565b9050600015158160000151151503610f0e576040517f08c379a0000000000000000000000000000000000000000000000000000000008152600401610f05906142b1565b60405180910390fd5b60008160200151905061010060088054905010610f60576040517f08c379a0000000000000000000000000000000000000000000000000000000008152600401610f579061431d565b60405180910390fd5b60008190505b6001600880549050610f78919061436c565b811015611039576008600182610f8e91906143a0565b81548110610f9f57610f9e6143d4565b5b9060005260206000200160009054906101000a900473ffffffffffffffffffffffffffffffffffffffff1660088281548110610fde57610fdd6143d4565b5b9060005260206000200160006101000a81548173ffffffffffffffffffffffffffffffffffffffff021916908373ffffffffffffffffffffffffffffffffffffffff160217905550808061103190614403565b915050610f66565b50600880548061104c5761104b61444b565b5b6001900381819060005260206000200160006101000a81549073ffffffffffffffffffffffffffffffffffffffff02191690559055505050565b60008073ffffffffffffffffffffffffffffffffffffffff168273ffffffffffffffffffffffffffffffffffffffff16036110f6576040517f08c379a00000000000000000000000000000000000000000000000000000000081526004016110ed906144ec565b60405180910390fd5b600360008373ffffffffffffffffffffffffffffffffffffffff1673ffffffffffffffffffffffffffffffffffffffff168152602001908152602001600020549050919050565b6111478183611b70565b611186576040517f08c379a000000000000000000000000000000000000000000000000000000000815260040161117d90614558565b60405180910390fd5b6000600281111561119a57611199613a82565b5b600a600083815260200190815260200160002060060160009054906101000a900460ff1660028111156111d0576111cf613a82565b5b14611210576040517f08c379a0000000000000000000000000000000000000000000000000000000008152600401611207906145c4565b60405180910390fd5b6002600a600083815260200190815260200160002060060160006101000a81548160ff0219169083600281111561124a57611249613a82565b5b02179055507fcde9d14635b01f742aa20ce9f93d256582733620665d6a65adb0d7e99abcacae8160405161127e91906135c3565b60405180910390a15050565b7f000000000000000000000000000000000000000000000000000000000000000081565b60008160006112bc82612858565b116112fc576040517f08c379a00000000000000000000000000000000000000000000000000000000081526004016112f390614630565b60405180910390fd5b602061130782612858565b10611347576040517f08c379a000000000000000000000000000000000000000000000000000000000815260040161133e9061469c565b60405180910390fd5b60028081111561135a57611359613a82565b5b600a600087815260200190815260200160002060060160009054906101000a900460ff1660028111156113905761138f613a82565b5b146113d0576040517f08c379a00000000000000000000000000000000000000000000000000000000081526004016113c790614708565b60405180910390fd5b8373ffffffffffffffffffffffffffffffffffffffff16600a600087815260200190815260200160002060060160019054906101000a900473ffffffffffffffffffffffffffffffffffffffff1673ffffffffffffffffffffffffffffffffffffffff1603611474576040517f08c379a000000000000000000000000000000000000000000000000000000000815260040161146b90614774565b60405180910390fd5b600073ffffffffffffffffffffffffffffffffffffffff168473ffffffffffffffffffffffffffffffffffffffff16036114e3576040517f08c379a00000000000000000000000000000000000000000000000000000000081526004016114da906147e0565b60405180910390fd5b6000600a600087815260200190815260200160002060060160019054906101000a900473ffffffffffffffffffffffffffffffffffffffff16905084600a600088815260200190815260200160002060060160016101000a81548173ffffffffffffffffffffffffffffffffffffffff021916908373ffffffffffffffffffffffffffffffffffffffff16021790555083600a600088815260200190815260200160002060070190816115969190614127565b506000600a600088815260200190815260200160002060060160006101000a81548160ff021916908360028111156115d1576115d0613a82565b5b021790555042600a60008881526020019081526020016000206009018190555061163281600a600089815260200190815260200160002060060160019054906101000a900473ffffffffffffffffffffffffffffffffffffffff168861245a565b85925050509392505050565b60606001805461164d90613d52565b80601f016020809104026020016040519081016040528092919081815260200182805461167990613d52565b80156116c65780601f1061169b576101008083540402835291602001916116c6565b820191906000526020600020905b8154815290600101906020018083116116a957829003601f168201915b5050505050905090565b6000600960008373ffffffffffffffffffffffffffffffffffffffff1673ffffffffffffffffffffffffffffffffffffffff168152602001908152602001600020549050919050565b61172b611724612304565b8383612863565b5050565b7f000000000000000000000000000000000000000000000000000000000000000073ffffffffffffffffffffffffffffffffffffffff163373ffffffffffffffffffffffffffffffffffffffff161461178757600080fd5b6000600281111561179b5761179a613a82565b5b8160028111156117ae576117ad613a82565b5b146117b857600080fd5b80600a600084815260200190815260200160002060060160006101000a81548160ff021916908360028111156117f1576117f0613a82565b5b02179055505050565b61180b611805612304565b836123c5565b61184a576040517f08c379a000000000000000000000000000000000000000000000000000000000815260040161184190613f19565b60405180910390fd5b611856848484846129cf565b50505050565b6060611867826122b9565b6000611871612a2b565b9050600081511161189157604051806020016040528060008152506118bc565b8061189b84612a42565b6040516020016118ac92919061483c565b6040516020818303038152906040525b915050919050565b6118ce8183611b70565b6118d757600080fd5b6002808111156118ea576118e9613a82565b5b600a600083815260200190815260200160002060060160009054906101000a900460ff1660028111156119205761191f613a82565b5b14611960576040517f08c379a000000000000000000000000000000000000000000000000000000000815260040161195790614708565b60405180910390fd5b6000600a600083815260200190815260200160002060060160006101000a81548160ff0219169083600281111561199a57611999613a82565b5b02179055505050565b6000816119af816127ec565b6119ee576040517f08c379a00000000000000000000000000000000000000000000000000000000081526004016119e5906148ac565b60405180910390fd5b60016002811115611a0257611a01613a82565b5b600a600085815260200190815260200160002060060160009054906101000a900460ff166002811115611a3857611a37613a82565b5b14611a78576040517f08c379a0000000000000000000000000000000000000000000000000000000008152600401611a6f90614918565b60405180910390fd5b6001600a600085815260200190815260200160002060060160006101000a81548160ff02191690836002811115611ab257611ab1613a82565b5b021790555042600a6000858152602001908152602001600020600901819055506001915050919050565b6000600560008473ffffffffffffffffffffffffffffffffffffffff1673ffffffffffffffffffffffffffffffffffffffff16815260200190815260200160002060008373ffffffffffffffffffffffffffffffffffffffff1673ffffffffffffffffffffffffffffffffffffffff16815260200190815260200160002060009054906101000a900460ff16905092915050565b600082600960008473ffffffffffffffffffffffffffffffffffffffff1673ffffffffffffffffffffffffffffffffffffffff1681526020019081526020016000205403611bc15760019050611bc6565b600090505b92915050565b600081611bd8816127ec565b611c17576040517f08c379a0000000000000000000000000000000000000000000000000000000008152600401611c0e906148ac565b60405180910390fd5b600a600084815260200190815260200160002060050154915050919050565b60606008805480602002602001604051908101604052809291908181526020018280548015611cba57602002820191906000526020600020905b8160009054906101000a900473ffffffffffffffffffffffffffffffffffffffff1673ffffffffffffffffffffffffffffffffffffffff1681526020019060010190808311611c70575b5050505050905090565b6060600060088054905067ffffffffffffffff811115611ce757611ce661335e565b5b604051908082528060200260200182016040528015611d155781602001602082028036833780820191505090505b5090506000805b600880549050811015611e3c5760006009600060088481548110611d4357611d426143d4565b5b9060005260206000200160009054906101000a900473ffffffffffffffffffffffffffffffffffffffff1673ffffffffffffffffffffffffffffffffffffffff1673ffffffffffffffffffffffffffffffffffffffff168152602001908152602001600020549050600280811115611dbe57611dbd613a82565b5b600a600083815260200190815260200160002060060160009054906101000a900460ff166002811115611df457611df3613a82565b5b03611e285780848481518110611e0d57611e0c6143d4565b5b6020026020010181815250508280611e2490614403565b9350505b508080611e3490614403565b915050611d1c565b50819250505090565b600a602052806000526040600020600091509050806000015490806001015490806002015490806003015490806004018054611e8090613d52565b80601f0160208091040260200160405190810160405280929190818152602001828054611eac90613d52565b8015611ef95780601f10611ece57610100808354040283529160200191611ef9565b820191906000526020600020905b815481529060010190602001808311611edc57829003601f168201915b5050505050908060050154908060060160009054906101000a900460ff16908060060160019054906101000a900473ffffffffffffffffffffffffffffffffffffffff1690806007018054611f4d90613d52565b80601f0160208091040260200160405190810160405280929190818152602001828054611f7990613d52565b8015611fc65780601f10611f9b57610100808354040283529160200191611fc6565b820191906000526020600020905b815481529060010190602001808311611fa957829003601f168201915b505050505090806008015490806009015490508b565b611fe4612f8a565b81611fee816127ec565b61202d576040517f08c379a0000000000000000000000000000000000000000000000000000000008152600401612024906148ac565b60405180910390fd5b600a6000848152602001908152602001600020604051806101600160405290816000820154815260200160018201548152602001600282015481526020016003820154815260200160048201805461208490613d52565b80601f01602080910402602001604051908101604052809291908181526020018280546120b090613d52565b80156120fd5780601f106120d2576101008083540402835291602001916120fd565b820191906000526020600020905b8154815290600101906020018083116120e057829003601f168201915b50505050508152602001600582015481526020016006820160009054906101000a900460ff16600281111561213557612134613a82565b5b600281111561214757612146613a82565b5b81526020016006820160019054906101000a900473ffffffffffffffffffffffffffffffffffffffff1673ffffffffffffffffffffffffffffffffffffffff1673ffffffffffffffffffffffffffffffffffffffff1681526020016007820180546121b190613d52565b80601f01602080910402602001604051908101604052809291908181526020018280546121dd90613d52565b801561222a5780601f106121ff5761010080835404028352916020019161222a565b820191906000526020600020905b81548152906001019060200180831161220d57829003601f168201915b5050505050815260200160088201548152602001600982015481525050915050919050565b60007f01ffc9a7000000000000000000000000000000000000000000000000000000007bffffffffffffffffffffffffffffffffffffffffffffffffffffffff1916827bffffffffffffffffffffffffffffffffffffffffffffffffffffffff1916149050919050565b6122c2816127ec565b612301576040517f08c379a00000000000000000000000000000000000000000000000000000000081526004016122f890614245565b60405180910390fd5b50565b600033905090565b816004600083815260200190815260200160002060006101000a81548173ffffffffffffffffffffffffffffffffffffffff021916908373ffffffffffffffffffffffffffffffffffffffff160217905550808273ffffffffffffffffffffffffffffffffffffffff1661237f83610dad565b73ffffffffffffffffffffffffffffffffffffffff167f8c5be1e5ebec7d5bd14f71427d1e84f3dd0314c0f7b2291e5b200ac8c7c3b92560405160405180910390a45050565b6000806123d183610dad565b90508073ffffffffffffffffffffffffffffffffffffffff168473ffffffffffffffffffffffffffffffffffffffff16148061241357506124128185611adc565b5b8061245157508373ffffffffffffffffffffffffffffffffffffffff16612439846107ef565b73ffffffffffffffffffffffffffffffffffffffff16145b91505092915050565b8273ffffffffffffffffffffffffffffffffffffffff1661247a82610dad565b73ffffffffffffffffffffffffffffffffffffffff16146124d0576040517f08c379a00000000000000000000000000000000000000000000000000000000081526004016124c7906149aa565b60405180910390fd5b600073ffffffffffffffffffffffffffffffffffffffff168273ffffffffffffffffffffffffffffffffffffffff160361253f576040517f08c379a000000000000000000000000000000000000000000000000000000000815260040161253690614a3c565b60405180910390fd5b61254a838383612ba2565b61255560008261230c565b6001600360008573ffffffffffffffffffffffffffffffffffffffff1673ffffffffffffffffffffffffffffffffffffffff16815260200190815260200160002060008282546125a5919061436c565b925050819055506001600360008473ffffffffffffffffffffffffffffffffffffffff1673ffffffffffffffffffffffffffffffffffffffff16815260200190815260200160002060008282546125fc91906143a0565b92505081905550816002600083815260200190815260200160002060006101000a81548173ffffffffffffffffffffffffffffffffffffffff021916908373ffffffffffffffffffffffffffffffffffffffff160217905550808273ffffffffffffffffffffffffffffffffffffffff168473ffffffffffffffffffffffffffffffffffffffff167fddf252ad1be2c89b69c2b068fc378daa952ba7f163c4a11628f55a4df523b3ef60405160405180910390a46126bb838383612ba7565b505050565b6126c861300c565b60005b600880549050811015612782578273ffffffffffffffffffffffffffffffffffffffff1660088281548110612703576127026143d4565b5b9060005260206000200160009054906101000a900473ffffffffffffffffffffffffffffffffffffffff1673ffffffffffffffffffffffffffffffffffffffff160361276f576000604051806040016040528060011515815260200183815250905080925050506127a5565b808061277a90614403565b9150506126cb565b506000604051806040016040528060001515815260200160008152509050809150505b919050565b6001816000016000828254019250508190555050565b600081600001549050919050565b6127e8828260405180602001604052806000815250612bac565b5050565b60008073ffffffffffffffffffffffffffffffffffffffff166002600084815260200190815260200160002060009054906101000a900473ffffffffffffffffffffffffffffffffffffffff1673ffffffffffffffffffffffffffffffffffffffff1614159050919050565b600081519050919050565b8173ffffffffffffffffffffffffffffffffffffffff168373ffffffffffffffffffffffffffffffffffffffff16036128d1576040517f08c379a00000000000000000000000000000000000000000000000000000000081526004016128c890614aa8565b60405180910390fd5b80600560008573ffffffffffffffffffffffffffffffffffffffff1673ffffffffffffffffffffffffffffffffffffffff16815260200190815260200160002060008473ffffffffffffffffffffffffffffffffffffffff1673ffffffffffffffffffffffffffffffffffffffff16815260200190815260200160002060006101000a81548160ff0219169083151502179055508173ffffffffffffffffffffffffffffffffffffffff168373ffffffffffffffffffffffffffffffffffffffff167f17307eab39ab6107e8899845ad3d59bd9653f200f220920489ca2b5937696c31836040516129c291906130dc565b60405180910390a3505050565b6129da84848461245a565b6129e684848484612c07565b612a25576040517f08c379a0000000000000000000000000000000000000000000000000000000008152600401612a1c90614b3a565b60405180910390fd5b50505050565b606060405180602001604052806000815250905090565b606060008203612a89576040518060400160405280600181526020017f30000000000000000000000000000000000000000000000000000000000000008152509050612b9d565b600082905060005b60008214612abb578080612aa490614403565b915050600a82612ab49190614b89565b9150612a91565b60008167ffffffffffffffff811115612ad757612ad661335e565b5b6040519080825280601f01601f191660200182016040528015612b095781602001600182028036833780820191505090505b5090505b60008514612b9657600182612b22919061436c565b9150600a85612b319190614bba565b6030612b3d91906143a0565b60f81b818381518110612b5357612b526143d4565b5b60200101907effffffffffffffffffffffffffffffffffffffffffffffffffffffffffffff1916908160001a905350600a85612b8f9190614b89565b9450612b0d565b8093505050505b919050565b505050565b505050565b612bb68383612d8e565b612bc36000848484612c07565b612c02576040517f08c379a0000000000000000000000000000000000000000000000000000000008152600401612bf990614b3a565b60405180910390fd5b505050565b6000612c288473ffffffffffffffffffffffffffffffffffffffff16612f67565b15612d81578373ffffffffffffffffffffffffffffffffffffffff1663150b7a02612c51612304565b8786866040518563ffffffff1660e01b8152600401612c739493929190614c40565b6020604051808303816000875af1925050508015612caf57506040513d601f19601f82011682018060405250810190612cac9190614ca1565b60015b612d31573d8060008114612cdf576040519150601f19603f3d011682016040523d82523d6000602084013e612ce4565b606091505b506000815103612d29576040517f08c379a0000000000000000000000000000000000000000000000000000000008152600401612d2090614b3a565b60405180910390fd5b805181602001fd5b63150b7a0260e01b7bffffffffffffffffffffffffffffffffffffffffffffffffffffffff1916817bffffffffffffffffffffffffffffffffffffffffffffffffffffffff191614915050612d86565b600190505b949350505050565b600073ffffffffffffffffffffffffffffffffffffffff168273ffffffffffffffffffffffffffffffffffffffff1603612dfd576040517f08c379a0000000000000000000000000000000000000000000000000000000008152600401612df490614d1a565b60405180910390fd5b612e06816127ec565b15612e46576040517f08c379a0000000000000000000000000000000000000000000000000000000008152600401612e3d90614d86565b60405180910390fd5b612e5260008383612ba2565b6001600360008473ffffffffffffffffffffffffffffffffffffffff1673ffffffffffffffffffffffffffffffffffffffff1681526020019081526020016000206000828254612ea291906143a0565b92505081905550816002600083815260200190815260200160002060006101000a81548173ffffffffffffffffffffffffffffffffffffffff021916908373ffffffffffffffffffffffffffffffffffffffff160217905550808273ffffffffffffffffffffffffffffffffffffffff16600073ffffffffffffffffffffffffffffffffffffffff167fddf252ad1be2c89b69c2b068fc378daa952ba7f163c4a11628f55a4df523b3ef60405160405180910390a4612f6360008383612ba7565b5050565b6000808273ffffffffffffffffffffffffffffffffffffffff163b119050919050565b60405180610160016040528060008152602001600081526020016000815260200160008152602001606081526020016000815260200160006002811115612fd457612fd3613a82565b5b8152602001600073ffffffffffffffffffffffffffffffffffffffff1681526020016060815260200160008152602001600081525090565b6040518060400160405280600015158152602001600081525090565b6000604051905090565b600080fd5b600080fd5b60007fffffffff0000000000000000000000000000000000000000000000000000000082169050919050565b6130718161303c565b811461307c57600080fd5b50565b60008135905061308e81613068565b92915050565b6000602082840312156130aa576130a9613032565b5b60006130b88482850161307f565b91505092915050565b60008115159050919050565b6130d6816130c1565b82525050565b60006020820190506130f160008301846130cd565b92915050565b600081519050919050565b600082825260208201905092915050565b60005b83811015613131578082015181840152602081019050613116565b60008484015250505050565b6000601f19601f8301169050919050565b6000613159826130f7565b6131638185613102565b9350613173818560208601613113565b61317c8161313d565b840191505092915050565b600060208201905081810360008301526131a1818461314e565b905092915050565b6000819050919050565b6131bc816131a9565b81146131c757600080fd5b50565b6000813590506131d9816131b3565b92915050565b6000602082840312156131f5576131f4613032565b5b6000613203848285016131ca565b91505092915050565b600073ffffffffffffffffffffffffffffffffffffffff82169050919050565b60006132378261320c565b9050919050565b6132478161322c565b82525050565b6000602082019050613262600083018461323e565b92915050565b6132718161322c565b811461327c57600080fd5b50565b60008135905061328e81613268565b92915050565b600080604083850312156132ab576132aa613032565b5b60006132b98582860161327f565b92505060206132ca858286016131ca565b9150509250929050565b6000806000606084860312156132ed576132ec613032565b5b60006132fb8682870161327f565b935050602061330c8682870161327f565b925050604061331d868287016131ca565b9150509250925092565b60006020828403121561333d5761333c613032565b5b600061334b8482850161327f565b91505092915050565b600080fd5b600080fd5b7f4e487b7100000000000000000000000000000000000000000000000000000000600052604160045260246000fd5b6133968261313d565b810181811067ffffffffffffffff821117156133b5576133b461335e565b5b80604052505050565b60006133c8613028565b90506133d4828261338d565b919050565b600067ffffffffffffffff8211156133f4576133f361335e565b5b6133fd8261313d565b9050602081019050919050565b82818337600083830152505050565b600061342c613427846133d9565b6133be565b90508281526020810184848401111561344857613447613359565b5b61345384828561340a565b509392505050565b600082601f8301126134705761346f613354565b5b8135613480848260208601613419565b91505092915050565b600080fd5b600080fd5b60008083601f8401126134a9576134a8613354565b5b8235905067ffffffffffffffff8111156134c6576134c5613489565b5b6020830191508360018202830111156134e2576134e161348e565b5b9250929050565b600080600080600080600060c0888a03121561350857613507613032565b5b60006135168a828b016131ca565b97505060206135278a828b016131ca565b965050604088013567ffffffffffffffff81111561354857613547613037565b5b6135548a828b0161345b565b95505060606135658a828b016131ca565b945050608088013567ffffffffffffffff81111561358657613585613037565b5b6135928a828b01613493565b935093505060a06135a58a828b0161327f565b91505092959891949750929550565b6135bd816131a9565b82525050565b60006020820190506135d860008301846135b4565b92915050565b6000806000606084860312156135f7576135f6613032565b5b6000613605868287016131ca565b93505060206136168682870161327f565b925050604084013567ffffffffffffffff81111561363757613636613037565b5b6136438682870161345b565b9150509250925092565b613656816130c1565b811461366157600080fd5b50565b6000813590506136738161364d565b92915050565b600080604083850312156136905761368f613032565b5b600061369e8582860161327f565b92505060206136af85828601613664565b9150509250929050565b600381106136c657600080fd5b50565b6000813590506136d8816136b9565b92915050565b600080604083850312156136f5576136f4613032565b5b6000613703858286016131ca565b9250506020613714858286016136c9565b9150509250929050565b600067ffffffffffffffff8211156137395761373861335e565b5b6137428261313d565b9050602081019050919050565b600061376261375d8461371e565b6133be565b90508281526020810184848401111561377e5761377d613359565b5b61378984828561340a565b509392505050565b600082601f8301126137a6576137a5613354565b5b81356137b684826020860161374f565b91505092915050565b600080600080608085870312156137d9576137d8613032565b5b60006137e78782880161327f565b94505060206137f88782880161327f565b9350506040613809878288016131ca565b925050606085013567ffffffffffffffff81111561382a57613829613037565b5b61383687828801613791565b91505092959194509250565b6000806040838503121561385957613858613032565b5b60006138678582860161327f565b92505060206138788582860161327f565b9150509250929050565b6000806040838503121561389957613898613032565b5b60006138a7858286016131ca565b92505060206138b88582860161327f565b9150509250929050565b600081519050919050565b600082825260208201905092915050565b6000819050602082019050919050565b6138f78161322c565b82525050565b600061390983836138ee565b60208301905092915050565b6000602082019050919050565b600061392d826138c2565b61393781856138cd565b9350613942836138de565b8060005b8381101561397357815161395a88826138fd565b975061396583613915565b925050600181019050613946565b5085935050505092915050565b6000602082019050818103600083015261399a8184613922565b905092915050565b600081519050919050565b600082825260208201905092915050565b6000819050602082019050919050565b6139d7816131a9565b82525050565b60006139e983836139ce565b60208301905092915050565b6000602082019050919050565b6000613a0d826139a2565b613a1781856139ad565b9350613a22836139be565b8060005b83811015613a53578151613a3a88826139dd565b9750613a45836139f5565b925050600181019050613a26565b5085935050505092915050565b60006020820190508181036000830152613a7a8184613a02565b905092915050565b7f4e487b7100000000000000000000000000000000000000000000000000000000600052602160045260246000fd5b60038110613ac257613ac1613a82565b5b50565b6000819050613ad382613ab1565b919050565b6000613ae382613ac5565b9050919050565b613af381613ad8565b82525050565b600061016082019050613b0f600083018e6135b4565b613b1c602083018d6135b4565b613b29604083018c6135b4565b613b36606083018b6135b4565b8181036080830152613b48818a61314e565b9050613b5760a08301896135b4565b613b6460c0830188613aea565b613b7160e083018761323e565b818103610100830152613b84818661314e565b9050613b946101208301856135b4565b613ba26101408301846135b4565b9c9b505050505050505050505050565b600082825260208201905092915050565b6000613bce826130f7565b613bd88185613bb2565b9350613be8818560208601613113565b613bf18161313d565b840191505092915050565b613c0581613ad8565b82525050565b600061016083016000830151613c2460008601826139ce565b506020830151613c3760208601826139ce565b506040830151613c4a60408601826139ce565b506060830151613c5d60608601826139ce565b5060808301518482036080860152613c758282613bc3565b91505060a0830151613c8a60a08601826139ce565b5060c0830151613c9d60c0860182613bfc565b5060e0830151613cb060e08601826138ee565b50610100830151848203610100860152613cca8282613bc3565b915050610120830151613ce16101208601826139ce565b50610140830151613cf66101408601826139ce565b508091505092915050565b60006020820190508181036000830152613d1b8184613c0b565b905092915050565b7f4e487b7100000000000000000000000000000000000000000000000000000000600052602260045260246000fd5b60006002820490506001821680613d6a57607f821691505b602082108103613d7d57613d7c613d23565b5b50919050565b7f4552433732313a20617070726f76616c20746f2063757272656e74206f776e6560008201527f7200000000000000000000000000000000000000000000000000000000000000602082015250565b6000613ddf602183613102565b9150613dea82613d83565b604082019050919050565b60006020820190508181036000830152613e0e81613dd2565b9050919050565b7f4552433732313a20617070726f76652063616c6c6572206973206e6f7420746f60008201527f6b656e206f776e6572206e6f7220617070726f76656420666f7220616c6c0000602082015250565b6000613e71603e83613102565b9150613e7c82613e15565b604082019050919050565b60006020820190508181036000830152613ea081613e64565b9050919050565b7f4552433732313a2063616c6c6572206973206e6f7420746f6b656e206f776e6560008201527f72206e6f7220617070726f766564000000000000000000000000000000000000602082015250565b6000613f03602e83613102565b9150613f0e82613ea7565b604082019050919050565b60006020820190508181036000830152613f3281613ef6565b9050919050565b600081519050613f48816131b3565b92915050565b600060208284031215613f6457613f63613032565b5b6000613f7284828501613f39565b91505092915050565b60008190508160005260206000209050919050565b60006020601f8301049050919050565b600082821b905092915050565b600060088302613fdd7fffffffffffffffffffffffffffffffffffffffffffffffffffffffffffffffff82613fa0565b613fe78683613fa0565b95508019841693508086168417925050509392505050565b6000819050919050565b600061402461401f61401a846131a9565b613fff565b6131a9565b9050919050565b6000819050919050565b61403e83614009565b61405261404a8261402b565b848454613fad565b825550505050565b600090565b61406761405a565b614072818484614035565b505050565b5b818110156140965761408b60008261405f565b600181019050614078565b5050565b601f8211156140db576140ac81613f7b565b6140b584613f90565b810160208510156140c4578190505b6140d86140d085613f90565b830182614077565b50505b505050565b600082821c905092915050565b60006140fe600019846008026140e0565b1980831691505092915050565b600061411783836140ed565b9150826002028217905092915050565b614130826130f7565b67ffffffffffffffff8111156141495761414861335e565b5b6141538254613d52565b61415e82828561409a565b600060209050601f831160018114614191576000841561417f578287015190505b614189858261410b565b8655506141f1565b601f19841661419f86613f7b565b60005b828110156141c7578489015182556001820191506020850194506020810190506141a2565b868310156141e457848901516141e0601f8916826140ed565b8355505b6001600288020188555050505b505050505050565b7f4552433732313a20696e76616c696420746f6b656e2049440000000000000000600082015250565b600061422f601883613102565b915061423a826141f9565b602082019050919050565b6000602082019050818103600083015261425e81614222565b9050919050565b7f4275796572206e6f7420666f756e640000000000000000000000000000000000600082015250565b600061429b600f83613102565b91506142a682614265565b602082019050919050565b600060208201905081810360008301526142ca8161428e565b9050919050565b7f696e76616c696420696e64657800000000000000000000000000000000000000600082015250565b6000614307600d83613102565b9150614312826142d1565b602082019050919050565b60006020820190508181036000830152614336816142fa565b9050919050565b7f4e487b7100000000000000000000000000000000000000000000000000000000600052601160045260246000fd5b6000614377826131a9565b9150614382836131a9565b925082820390508181111561439a5761439961433d565b5b92915050565b60006143ab826131a9565b91506143b6836131a9565b92508282019050808211156143ce576143cd61433d565b5b92915050565b7f4e487b7100000000000000000000000000000000000000000000000000000000600052603260045260246000fd5b600061440e826131a9565b91507fffffffffffffffffffffffffffffffffffffffffffffffffffffffffffffffff82036144405761443f61433d565b5b600182019050919050565b7f4e487b7100000000000000000000000000000000000000000000000000000000600052603160045260246000fd5b7f4552433732313a2061646472657373207a65726f206973206e6f74206120766160008201527f6c6964206f776e65720000000000000000000000000000000000000000000000602082015250565b60006144d6602983613102565b91506144e18261447a565b604082019050919050565b60006020820190508181036000830152614505816144c9565b9050919050565b7f4e6f742061206275796572000000000000000000000000000000000000000000600082015250565b6000614542600b83613102565b915061454d8261450c565b602082019050919050565b6000602082019050818103600083015261457181614535565b9050919050565b7f5469636b6574206973206e6f7420726561647900000000000000000000000000600082015250565b60006145ae601383613102565b91506145b982614578565b602082019050919050565b600060208201905081810360008301526145dd816145a1565b9050919050565b7f4e616d6520697320656d70747900000000000000000000000000000000000000600082015250565b600061461a600d83613102565b9150614625826145e4565b602082019050919050565b600060208201905081810360008301526146498161460d565b9050919050565b7f4e616d6520697320746f6f206c6f6e6700000000000000000000000000000000600082015250565b6000614686601083613102565b915061469182614650565b602082019050919050565b600060208201905081810360008301526146b581614679565b9050919050565b7f5469636b6574206973206e6f74207472616461626c6500000000000000000000600082015250565b60006146f2601683613102565b91506146fd826146bc565b602082019050919050565b60006020820190508181036000830152614721816146e5565b9050919050565b7f596f752063616e6e6f742062757920796f7572206f776e207469636b65740000600082015250565b600061475e601e83613102565b915061476982614728565b602082019050919050565b6000602082019050818103600083015261478d81614751565b9050919050565b7f696e76616c696420616464726573730000000000000000000000000000000000600082015250565b60006147ca600f83613102565b91506147d582614794565b602082019050919050565b600060208201905081810360008301526147f9816147bd565b9050919050565b600081905092915050565b6000614816826130f7565b6148208185614800565b9350614830818560208601613113565b80840191505092915050565b6000614848828561480b565b9150614854828461480b565b91508190509392505050565b7f5469636b657420646f6573206e6f742065786973740000000000000000000000600082015250565b6000614896601583613102565b91506148a182614860565b602082019050919050565b600060208201905081810360008301526148c581614889565b9050919050565b7f5469636b657420697320616c726561647920636865636b656420696e00000000600082015250565b6000614902601c83613102565b915061490d826148cc565b602082019050919050565b60006020820190508181036000830152614931816148f5565b9050919050565b7f4552433732313a207472616e736665722066726f6d20696e636f72726563742060008201527f6f776e6572000000000000000000000000000000000000000000000000000000602082015250565b6000614994602583613102565b915061499f82614938565b604082019050919050565b600060208201905081810360008301526149c381614987565b9050919050565b7f4552433732313a207472616e7366657220746f20746865207a65726f2061646460008201527f7265737300000000000000000000000000000000000000000000000000000000602082015250565b6000614a26602483613102565b9150614a31826149ca565b604082019050919050565b60006020820190508181036000830152614a5581614a19565b9050919050565b7f4552433732313a20617070726f766520746f2063616c6c657200000000000000600082015250565b6000614a92601983613102565b9150614a9d82614a5c565b602082019050919050565b60006020820190508181036000830152614ac181614a85565b9050919050565b7f4552433732313a207472616e7366657220746f206e6f6e20455243373231526560008201527f63656976657220696d706c656d656e7465720000000000000000000000000000602082015250565b6000614b24603283613102565b9150614b2f82614ac8565b604082019050919050565b60006020820190508181036000830152614b5381614b17565b9050919050565b7f4e487b7100000000000000000000000000000000000000000000000000000000600052601260045260246000fd5b6000614b94826131a9565b9150614b9f836131a9565b925082614baf57614bae614b5a565b5b828204905092915050565b6000614bc5826131a9565b9150614bd0836131a9565b925082614be057614bdf614b5a565b5b828206905092915050565b600081519050919050565b600082825260208201905092915050565b6000614c1282614beb565b614c1c8185614bf6565b9350614c2c818560208601613113565b614c358161313d565b840191505092915050565b6000608082019050614c55600083018761323e565b614c62602083018661323e565b614c6f60408301856135b4565b8181036060830152614c818184614c07565b905095945050505050565b600081519050614c9b81613068565b92915050565b600060208284031215614cb757614cb6613032565b5b6000614cc584828501614c8c565b91505092915050565b7f4552433732313a206d696e7420746f20746865207a65726f2061646472657373600082015250565b6000614d04602083613102565b9150614d0f82614cce565b602082019050919050565b60006020820190508181036000830152614d3381614cf7565b9050919050565b7f4552433732313a20746f6b656e20616c7265616479206d696e74656400000000600082015250565b6000614d70601c83613102565b9150614d7b82614d3a565b602082019050919050565b60006020820190508181036000830152614d9f81614d63565b905091905056fea2646970667358221220c1e373cb945f3789061b7b58b6258d4655b6f8dd05bad43eacd5b1ce53cbee0664736f6c63430008110033",
  "linkReferences": {},
  "deployedLinkReferences": {}
}