{
  "_format": "hh-sol-artifact-1",
  "contractName": "Show",
  "sourceName": "contracts/Show.sol",
  "abi": [
    {
      "inputs": [
        {
          "internalType": "address",
          "name": "_owner",
          "type": "address"
        },
        {
          "internalType": "uint256",
          "name": "_showId",
          "type": "uint256"
        },
        {
          "internalType": "address payable[]",
          "name": "_socios",
          "type": "address[]"
        },
        {
          "internalType": "address payable[]",
          "name": "_inversionistas",
          "type": "address[]"
        },
        {
          "internalType": "uint256",
          "name": "_percentageSocios",
          "type": "uint256"
        },
        {
          "internalType": "uint256",
          "name": "_percentageContrato",
          "type": "uint256"
        },
        {
          "internalType": "uint256",
          "name": "_percentageInversionistas",
          "type": "uint256"
        }
      ],
      "stateMutability": "nonpayable",
      "type": "constructor"
    },
    {
      "inputs": [],
      "name": "ShowIsNotScheduled",
      "type": "error"
    },
    {
      "inputs": [],
      "name": "Unauthorized",
      "type": "error"
    },
    {
      "anonymous": false,
      "inputs": [
        {
          "indexed": true,
          "internalType": "contract IERC20",
          "name": "token",
          "type": "address"
        },
        {
          "indexed": false,
          "internalType": "address",
          "name": "to",
          "type": "address"
        },
        {
          "indexed": false,
          "internalType": "uint256",
          "name": "amount",
          "type": "uint256"
        }
      ],
      "name": "ERC20PaymentReleased",
      "type": "event"
    },
    {
      "anonymous": false,
      "inputs": [
        {
          "indexed": false,
          "internalType": "address",
          "name": "account",
          "type": "address"
        }
      ],
      "name": "PayeeAdded",
      "type": "event"
    },
    {
      "anonymous": false,
      "inputs": [
        {
          "indexed": false,
          "internalType": "address",
          "name": "to",
          "type": "address"
        },
        {
          "indexed": false,
          "internalType": "uint256",
          "name": "amount",
          "type": "uint256"
        }
      ],
      "name": "PaymentReleased",
      "type": "event"
    },
    {
      "anonymous": false,
      "inputs": [
        {
          "indexed": true,
          "internalType": "uint256",
          "name": "showId",
          "type": "uint256"
        },
        {
          "indexed": false,
          "internalType": "string",
          "name": "title",
          "type": "string"
        },
        {
          "indexed": false,
          "internalType": "string",
          "name": "date",
          "type": "string"
        }
      ],
      "name": "ShowScheduled",
      "type": "event"
    },
    {
      "inputs": [],
      "name": "MAX_SEATS",
      "outputs": [
        {
          "internalType": "uint256",
          "name": "",
          "type": "uint256"
        }
      ],
      "stateMutability": "view",
      "type": "function"
    },
    {
      "inputs": [],
      "name": "MAX_SEAT_TYPES",
      "outputs": [
        {
          "internalType": "uint256",
          "name": "",
          "type": "uint256"
        }
      ],
      "stateMutability": "view",
      "type": "function"
    },
    {
      "inputs": [
        {
          "internalType": "address",
          "name": "account",
          "type": "address"
        }
      ],
      "name": "_removePayee",
      "outputs": [],
      "stateMutability": "nonpayable",
      "type": "function"
    },
    {
      "inputs": [
        {
          "internalType": "uint256",
          "name": "_seatTypeId",
          "type": "uint256"
        },
        {
          "internalType": "string",
          "name": "_name",
          "type": "string"
        }
      ],
      "name": "addSeat",
      "outputs": [
        {
          "internalType": "uint256",
          "name": "",
          "type": "uint256"
        }
      ],
      "stateMutability": "nonpayable",
      "type": "function"
    },
    {
      "inputs": [
        {
          "internalType": "uint256",
          "name": "_seatTypeId",
          "type": "uint256"
        },
        {
          "internalType": "string[]",
          "name": "_names",
          "type": "string[]"
        }
      ],
      "name": "addSeats",
      "outputs": [
        {
          "internalType": "uint256[]",
          "name": "",
          "type": "uint256[]"
        }
      ],
      "stateMutability": "nonpayable",
      "type": "function"
    },
    {
      "inputs": [
        {
          "internalType": "uint256",
          "name": "_ticketId",
          "type": "uint256"
        },
        {
          "internalType": "string",
          "name": "_buyerName",
          "type": "string"
        }
      ],
      "name": "buyOfferedTicket",
      "outputs": [
        {
          "internalType": "uint256",
          "name": "",
          "type": "uint256"
        }
      ],
      "stateMutability": "payable",
      "type": "function"
    },
    {
      "inputs": [
        {
          "internalType": "uint256",
          "name": "_seatTypeId",
          "type": "uint256"
        },
        {
          "internalType": "uint256",
          "name": "_seatNum",
          "type": "uint256"
        },
        {
          "internalType": "string",
          "name": "_buyerName",
          "type": "string"
        }
      ],
      "name": "buyTicket",
      "outputs": [
        {
          "internalType": "uint256",
          "name": "",
          "type": "uint256"
        }
      ],
      "stateMutability": "payable",
      "type": "function"
    },
    {
      "inputs": [
        {
          "internalType": "uint256",
          "name": "_ticketId",
          "type": "uint256"
        }
      ],
      "name": "checkIn",
      "outputs": [],
      "stateMutability": "nonpayable",
      "type": "function"
    },
    {
      "inputs": [
        {
          "internalType": "uint256",
          "name": "_ticketId",
          "type": "uint256"
        }
      ],
      "name": "existTicket",
      "outputs": [
        {
          "internalType": "bool",
          "name": "",
          "type": "bool"
        }
      ],
      "stateMutability": "view",
      "type": "function"
    },
    {
      "inputs": [],
      "name": "gananciasContrato",
      "outputs": [
        {
          "internalType": "address payable",
          "name": "",
          "type": "address"
        }
      ],
      "stateMutability": "view",
      "type": "function"
    },
    {
      "inputs": [],
      "name": "getContractBalance",
      "outputs": [
        {
          "internalType": "uint256",
          "name": "",
          "type": "uint256"
        }
      ],
      "stateMutability": "view",
      "type": "function"
    },
    {
      "inputs": [],
      "name": "getRawSeatTypes",
      "outputs": [
        {
          "components": [
            {
              "internalType": "uint256",
              "name": "id",
              "type": "uint256"
            },
            {
              "internalType": "string",
              "name": "name",
              "type": "string"
            },
            {
              "internalType": "uint256",
              "name": "price",
              "type": "uint256"
            },
            {
              "internalType": "bool",
              "name": "available",
              "type": "bool"
            }
          ],
          "internalType": "struct Show.SeatType[]",
          "name": "",
          "type": "tuple[]"
        }
      ],
      "stateMutability": "view",
      "type": "function"
    },
    {
      "inputs": [
        {
          "internalType": "uint256",
          "name": "_seatTypeId",
          "type": "uint256"
        }
      ],
      "name": "getRawSeats",
      "outputs": [
        {
          "components": [
            {
              "internalType": "uint256",
              "name": "id",
              "type": "uint256"
            },
            {
              "internalType": "string",
              "name": "name",
              "type": "string"
            },
            {
              "internalType": "uint256",
              "name": "ticketId",
              "type": "uint256"
            },
            {
              "internalType": "bool",
              "name": "available",
              "type": "bool"
            }
          ],
          "internalType": "struct Show.Seat[]",
          "name": "",
          "type": "tuple[]"
        }
      ],
      "stateMutability": "view",
      "type": "function"
    },
    {
      "inputs": [
        {
          "internalType": "uint256",
          "name": "_seatTypeId",
          "type": "uint256"
        },
        {
          "internalType": "uint256",
          "name": "_seatNum",
          "type": "uint256"
        }
      ],
      "name": "getSeat",
      "outputs": [
        {
          "components": [
            {
              "internalType": "uint256",
              "name": "id",
              "type": "uint256"
            },
            {
              "internalType": "string",
              "name": "name",
              "type": "string"
            },
            {
              "internalType": "uint256",
              "name": "ticketId",
              "type": "uint256"
            },
            {
              "internalType": "bool",
              "name": "available",
              "type": "bool"
            }
          ],
          "internalType": "struct Show.Seat",
          "name": "",
          "type": "tuple"
        }
      ],
      "stateMutability": "view",
      "type": "function"
    },
    {
      "inputs": [
        {
          "internalType": "uint256",
          "name": "_seatTypeId",
          "type": "uint256"
        },
        {
          "internalType": "uint256",
          "name": "_seatNum",
          "type": "uint256"
        }
      ],
      "name": "getSeatName",
      "outputs": [
        {
          "internalType": "string",
          "name": "",
          "type": "string"
        }
      ],
      "stateMutability": "view",
      "type": "function"
    },
    {
      "inputs": [
        {
          "internalType": "uint256",
          "name": "_seatTypeId",
          "type": "uint256"
        }
      ],
      "name": "getSeatType",
      "outputs": [
        {
          "components": [
            {
              "internalType": "uint256",
              "name": "id",
              "type": "uint256"
            },
            {
              "internalType": "string",
              "name": "name",
              "type": "string"
            },
            {
              "internalType": "uint256",
              "name": "price",
              "type": "uint256"
            },
            {
              "internalType": "bool",
              "name": "available",
              "type": "bool"
            }
          ],
          "internalType": "struct Show.SeatType",
          "name": "",
          "type": "tuple"
        }
      ],
      "stateMutability": "view",
      "type": "function"
    },
    {
      "inputs": [
        {
          "internalType": "uint256",
          "name": "_seatTypeId",
          "type": "uint256"
        }
      ],
      "name": "getSeatTypePrice",
      "outputs": [
        {
          "internalType": "uint256",
          "name": "",
          "type": "uint256"
        }
      ],
      "stateMutability": "view",
      "type": "function"
    },
    {
      "inputs": [],
      "name": "getSeatTypes",
      "outputs": [
        {
          "internalType": "uint256[]",
          "name": "",
          "type": "uint256[]"
        },
        {
          "internalType": "string[]",
          "name": "",
          "type": "string[]"
        },
        {
          "internalType": "uint256[]",
          "name": "",
          "type": "uint256[]"
        },
        {
          "internalType": "bool[]",
          "name": "",
          "type": "bool[]"
        }
      ],
      "stateMutability": "view",
      "type": "function"
    },
    {
      "inputs": [],
      "name": "getSeatTypesCount",
      "outputs": [
        {
          "internalType": "uint256",
          "name": "",
          "type": "uint256"
        }
      ],
      "stateMutability": "view",
      "type": "function"
    },
    {
      "inputs": [
        {
          "internalType": "uint256",
          "name": "_seatTypeId",
          "type": "uint256"
        }
      ],
      "name": "getSeats",
      "outputs": [
        {
          "internalType": "uint256[]",
          "name": "",
          "type": "uint256[]"
        },
        {
          "internalType": "string[]",
          "name": "",
          "type": "string[]"
        },
        {
          "internalType": "uint256[]",
          "name": "",
          "type": "uint256[]"
        },
        {
          "internalType": "bool[]",
          "name": "",
          "type": "bool[]"
        }
      ],
      "stateMutability": "view",
      "type": "function"
    },
    {
      "inputs": [
        {
          "internalType": "uint256",
          "name": "_seatTypeId",
          "type": "uint256"
        }
      ],
      "name": "getSeatsCount",
      "outputs": [
        {
          "internalType": "uint256",
          "name": "",
          "type": "uint256"
        }
      ],
      "stateMutability": "view",
      "type": "function"
    },
    {
      "inputs": [
        {
          "internalType": "uint256",
          "name": "_ticketId",
          "type": "uint256"
        }
      ],
      "name": "getTicketInfo",
      "outputs": [
        {
          "components": [
            {
              "internalType": "uint256",
              "name": "ticketId",
              "type": "uint256"
            },
            {
              "internalType": "uint256",
              "name": "showId",
              "type": "uint256"
            },
            {
              "internalType": "uint256",
              "name": "seatTypeId",
              "type": "uint256"
            },
            {
              "internalType": "uint256",
              "name": "seatNum",
              "type": "uint256"
            },
            {
              "internalType": "string",
              "name": "seatName",
              "type": "string"
            },
            {
              "internalType": "uint256",
              "name": "price",
              "type": "uint256"
            },
            {
              "internalType": "enum Ticket.TicketStatus",
              "name": "status",
              "type": "uint8"
            },
            {
              "internalType": "address",
              "name": "buyer",
              "type": "address"
            },
            {
              "internalType": "string",
              "name": "buyerName",
              "type": "string"
            },
            {
              "internalType": "uint256",
              "name": "createdAt",
              "type": "uint256"
            },
            {
              "internalType": "uint256",
              "name": "updatedAt",
              "type": "uint256"
            }
          ],
          "internalType": "struct Ticket.TicketInfo",
          "name": "",
          "type": "tuple"
        }
      ],
      "stateMutability": "view",
      "type": "function"
    },
    {
      "inputs": [],
      "name": "getTradableTickets",
      "outputs": [
        {
          "components": [
            {
              "internalType": "uint256",
              "name": "ticketId",
              "type": "uint256"
            },
            {
              "internalType": "uint256",
              "name": "showId",
              "type": "uint256"
            },
            {
              "internalType": "uint256",
              "name": "seatTypeId",
              "type": "uint256"
            },
            {
              "internalType": "uint256",
              "name": "seatNum",
              "type": "uint256"
            },
            {
              "internalType": "string",
              "name": "seatName",
              "type": "string"
            },
            {
              "internalType": "uint256",
              "name": "price",
              "type": "uint256"
            },
            {
              "internalType": "enum Ticket.TicketStatus",
              "name": "status",
              "type": "uint8"
            },
            {
              "internalType": "address",
              "name": "buyer",
              "type": "address"
            },
            {
              "internalType": "string",
              "name": "buyerName",
              "type": "string"
            },
            {
              "internalType": "uint256",
              "name": "createdAt",
              "type": "uint256"
            },
            {
              "internalType": "uint256",
              "name": "updatedAt",
              "type": "uint256"
            }
          ],
          "internalType": "struct Ticket.TicketInfo[]",
          "name": "",
          "type": "tuple[]"
        }
      ],
      "stateMutability": "view",
      "type": "function"
    },
    {
      "inputs": [
        {
          "internalType": "uint256",
          "name": "",
          "type": "uint256"
        }
      ],
      "name": "inversionistas",
      "outputs": [
        {
          "internalType": "address payable",
          "name": "",
          "type": "address"
        }
      ],
      "stateMutability": "view",
      "type": "function"
    },
    {
      "inputs": [
        {
          "internalType": "uint256",
          "name": "_seatTypeId",
          "type": "uint256"
        },
        {
          "internalType": "uint256",
          "name": "_seatNum",
          "type": "uint256"
        }
      ],
      "name": "isSeatAvailable",
      "outputs": [
        {
          "internalType": "bool",
          "name": "",
          "type": "bool"
        }
      ],
      "stateMutability": "view",
      "type": "function"
    },
    {
      "inputs": [],
      "name": "owner",
      "outputs": [
        {
          "internalType": "address",
          "name": "",
          "type": "address"
        }
      ],
      "stateMutability": "view",
      "type": "function"
    },
    {
      "inputs": [
        {
          "internalType": "address payable",
          "name": "",
          "type": "address"
        }
      ],
      "name": "release",
      "outputs": [],
      "stateMutability": "nonpayable",
      "type": "function"
    },
    {
      "inputs": [
        {
          "internalType": "uint256",
          "name": "",
          "type": "uint256"
        }
      ],
      "name": "seatTypes",
      "outputs": [
        {
          "internalType": "uint256",
          "name": "id",
          "type": "uint256"
        },
        {
          "internalType": "string",
          "name": "name",
          "type": "string"
        },
        {
          "internalType": "uint256",
          "name": "price",
          "type": "uint256"
        },
        {
          "internalType": "bool",
          "name": "available",
          "type": "bool"
        }
      ],
      "stateMutability": "view",
      "type": "function"
    },
    {
      "inputs": [
        {
          "internalType": "uint256",
          "name": "",
          "type": "uint256"
        },
        {
          "internalType": "uint256",
          "name": "",
          "type": "uint256"
        }
      ],
      "name": "seats",
      "outputs": [
        {
          "internalType": "uint256",
          "name": "id",
          "type": "uint256"
        },
        {
          "internalType": "string",
          "name": "name",
          "type": "string"
        },
        {
          "internalType": "uint256",
          "name": "ticketId",
          "type": "uint256"
        },
        {
          "internalType": "bool",
          "name": "available",
          "type": "bool"
        }
      ],
      "stateMutability": "view",
      "type": "function"
    },
    {
      "inputs": [
        {
          "internalType": "uint256",
          "name": "_maxSeatTypes",
          "type": "uint256"
        }
      ],
      "name": "setMaxSeatTypes",
      "outputs": [],
      "stateMutability": "nonpayable",
      "type": "function"
    },
    {
      "inputs": [
        {
          "internalType": "uint256",
          "name": "_maxSeats",
          "type": "uint256"
        }
      ],
      "name": "setMaxSeats",
      "outputs": [],
      "stateMutability": "nonpayable",
      "type": "function"
    },
    {
      "inputs": [],
      "name": "showId",
      "outputs": [
        {
          "internalType": "uint256",
          "name": "",
          "type": "uint256"
        }
      ],
      "stateMutability": "view",
      "type": "function"
    },
    {
      "inputs": [
        {
          "internalType": "uint256",
          "name": "",
          "type": "uint256"
        }
      ],
      "name": "socios",
      "outputs": [
        {
          "internalType": "address payable",
          "name": "",
          "type": "address"
        }
      ],
      "stateMutability": "view",
      "type": "function"
    },
    {
      "inputs": [
        {
          "internalType": "address",
          "name": "_newOwner",
          "type": "address"
        }
      ],
      "name": "transferOwnershipTo",
      "outputs": [],
      "stateMutability": "nonpayable",
      "type": "function"
    },
    {
      "inputs": [
        {
          "internalType": "uint256",
          "name": "_seatTypeId",
          "type": "uint256"
        },
        {
          "internalType": "uint256",
          "name": "_seatNum",
          "type": "uint256"
        },
        {
          "internalType": "bool",
          "name": "_available",
          "type": "bool"
        }
      ],
      "name": "updateSeatAvailability",
      "outputs": [],
      "stateMutability": "nonpayable",
      "type": "function"
    },
    {
      "inputs": [
        {
          "internalType": "uint256",
          "name": "_seatTypeId",
          "type": "uint256"
        },
        {
          "internalType": "uint256",
          "name": "_seatNum",
          "type": "uint256"
        },
        {
          "internalType": "string",
          "name": "_name",
          "type": "string"
        }
      ],
      "name": "updateSeatName",
      "outputs": [],
      "stateMutability": "nonpayable",
      "type": "function"
    },
    {
      "inputs": [
        {
          "internalType": "uint256",
          "name": "_seatTypeId",
          "type": "uint256"
        },
        {
          "internalType": "bool",
          "name": "_available",
          "type": "bool"
        }
      ],
      "name": "updateSeatTypeAvailability",
      "outputs": [],
      "stateMutability": "nonpayable",
      "type": "function"
    },
    {
      "inputs": [
        {
          "internalType": "uint256",
          "name": "_seatTypeId",
          "type": "uint256"
        },
        {
          "internalType": "string",
          "name": "_name",
          "type": "string"
        }
      ],
      "name": "updateSeatTypeName",
      "outputs": [],
      "stateMutability": "nonpayable",
      "type": "function"
    },
    {
      "inputs": [
        {
          "internalType": "uint256",
          "name": "_seatTypeId",
          "type": "uint256"
        },
        {
          "internalType": "uint256",
          "name": "_price",
          "type": "uint256"
        }
      ],
      "name": "updateSeatTypePrice",
      "outputs": [],
      "stateMutability": "nonpayable",
      "type": "function"
    }
  ],
  "bytecode": "0x6080604052601e6006556028600755601e60085560fa600b556103e8600c553480156200002b57600080fd5b506040516200b1c63803806200b1c68339818101604052810190620000519190620004d0565b866000806101000a81548173ffffffffffffffffffffffffffffffffffffffff021916908373ffffffffffffffffffffffffffffffffffffffff1602179055508560028190555030604051620000a790620001a6565b620000b391906200062c565b604051809103906000f080158015620000d0573d6000803e3d6000fd5b50600160006101000a81548173ffffffffffffffffffffffffffffffffffffffff021916908373ffffffffffffffffffffffffffffffffffffffff160217905550846003908051906020019062000129929190620001b4565b5033600460006101000a81548173ffffffffffffffffffffffffffffffffffffffff021916908373ffffffffffffffffffffffffffffffffffffffff160217905550836005908051906020019062000183929190620001b4565b508260068190555081600781905550806008819055505050505050505062000649565b6153638062005e6383390190565b82805482825590600052602060002090810192821562000230579160200282015b828111156200022f5782518260006101000a81548173ffffffffffffffffffffffffffffffffffffffff021916908373ffffffffffffffffffffffffffffffffffffffff16021790555091602001919060010190620001d5565b5b5090506200023f919062000243565b5090565b5b808211156200025e57600081600090555060010162000244565b5090565b6000604051905090565b600080fd5b600080fd5b600073ffffffffffffffffffffffffffffffffffffffff82169050919050565b6000620002a38262000276565b9050919050565b620002b58162000296565b8114620002c157600080fd5b50565b600081519050620002d581620002aa565b92915050565b6000819050919050565b620002f081620002db565b8114620002fc57600080fd5b50565b6000815190506200031081620002e5565b92915050565b600080fd5b6000601f19601f8301169050919050565b7f4e487b7100000000000000000000000000000000000000000000000000000000600052604160045260246000fd5b62000366826200031b565b810181811067ffffffffffffffff821117156200038857620003876200032c565b5b80604052505050565b60006200039d62000262565b9050620003ab82826200035b565b919050565b600067ffffffffffffffff821115620003ce57620003cd6200032c565b5b602082029050602081019050919050565b600080fd5b6000620003f18262000276565b9050919050565b6200040381620003e4565b81146200040f57600080fd5b50565b6000815190506200042381620003f8565b92915050565b6000620004406200043a84620003b0565b62000391565b90508083825260208201905060208402830185811115620004665762000465620003df565b5b835b818110156200049357806200047e888262000412565b84526020840193505060208101905062000468565b5050509392505050565b600082601f830112620004b557620004b462000316565b5b8151620004c784826020860162000429565b91505092915050565b600080600080600080600060e0888a031215620004f257620004f16200026c565b5b6000620005028a828b01620002c4565b9750506020620005158a828b01620002ff565b965050604088015167ffffffffffffffff81111562000539576200053862000271565b5b620005478a828b016200049d565b955050606088015167ffffffffffffffff8111156200056b576200056a62000271565b5b620005798a828b016200049d565b94505060806200058c8a828b01620002ff565b93505060a06200059f8a828b01620002ff565b92505060c0620005b28a828b01620002ff565b91505092959891949750929550565b6000819050919050565b6000620005ec620005e6620005e08462000276565b620005c1565b62000276565b9050919050565b60006200060082620005cb565b9050919050565b60006200061482620005f3565b9050919050565b620006268162000607565b82525050565b60006020820190506200064360008301846200061b565b92915050565b61580a80620006596000396000f3fe6080604052600436106102305760003560e01c80638da5cb5b1161012e578063d858fe38116100ab578063f86d34741161006f578063f86d3474146108d9578063f9ddb4a514610902578063fbb6e55d1461093f578063fd99bddd14610968578063ff99a063146109a557610230565b8063d858fe38146107ef578063e42705e71461081a578063e95a644f14610845578063eec2ff1b1461086e578063f67e15ba146108ae57610230565b8063a8d29a17116100f2578063a8d29a17146106cf578063b39e54f41461070c578063c22f9c181461074c578063ceec2f9514610775578063d00554e8146107b257610230565b80638da5cb5b146105f757806390e8042e1461062257806394c2c24f1461064d578063955f204b1461067857806399c84bd3146106a157610230565b80633cdc6536116101bc57806352effe111161018057806352effe11146104fe5780635357306a146105275780636e39db53146105645780636f9fb98a1461058f57806381f7c1ce146105ba57610230565b80633cdc6536146103ee5780633e98d9a91461041e5780633ec5c4581461045b57806343c5d3d414610498578063469498c1146104d557610230565b80631be56e9b116102035780631be56e9b146102db5780631d6916ab146103045780631fc3b334146103345780632013e0d514610371578063324c7e1a146103b157610230565b8063053768941461023557806309f210961461025e578063186698791461028957806319165587146102b2575b600080fd5b34801561024157600080fd5b5061025c6004803603810190610257919061386f565b6109e2565b005b34801561026a57600080fd5b506102736109e5565b60405161028091906138b5565b60405180910390f35b34801561029557600080fd5b506102b060048036038101906102ab9190613934565b6109eb565b005b3480156102be57600080fd5b506102d960048036038101906102d491906139c5565b610b66565b005b3480156102e757600080fd5b5061030260048036038101906102fd9190613b38565b610d9a565b005b61031e60048036038101906103199190613b94565b61101e565b60405161032b91906138b5565b60405180910390f35b34801561034057600080fd5b5061035b60048036038101906103569190613c03565b61125f565b6040516103689190613c3f565b60405180910390f35b34801561037d57600080fd5b5061039860048036038101906103939190613c03565b61129e565b6040516103a89493929190613f17565b60405180910390f35b3480156103bd57600080fd5b506103d860048036038101906103d39190613f78565b611673565b6040516103e5919061401b565b60405180910390f35b61040860048036038101906104039190613b38565b611825565b60405161041591906138b5565b60405180910390f35b34801561042a57600080fd5b5061044560048036038101906104409190613c03565b611c0b565b604051610452919061404c565b60405180910390f35b34801561046757600080fd5b50610482600480360381019061047d9190613f78565b611cb0565b60405161048f919061404c565b60405180910390f35b3480156104a457600080fd5b506104bf60048036038101906104ba9190613c03565b611da1565b6040516104cc91906140ca565b60405180910390f35b3480156104e157600080fd5b506104fc60048036038101906104f79190613b94565b611ee7565b005b34801561050a57600080fd5b506105256004803603810190610520919061386f565b61221d565b005b34801561053357600080fd5b5061054e60048036038101906105499190613c03565b6122e5565b60405161055b91906138b5565b60405180910390f35b34801561057057600080fd5b50610579612305565b60405161058691906138b5565b60405180910390f35b34801561059b57600080fd5b506105a461230b565b6040516105b191906138b5565b60405180910390f35b3480156105c657600080fd5b506105e160048036038101906105dc9190613c03565b61232b565b6040516105ee9190614211565b60405180910390f35b34801561060357600080fd5b5061060c61245e565b6040516106199190614242565b60405180910390f35b34801561062e57600080fd5b50610637612482565b60405161064491906138b5565b60405180910390f35b34801561065957600080fd5b5061066261248f565b60405161066f91906138b5565b60405180910390f35b34801561068457600080fd5b5061069f600480360381019061069a9190613c03565b612495565b005b3480156106ad57600080fd5b506106b6612524565b6040516106c69493929190613f17565b60405180910390f35b3480156106db57600080fd5b506106f660048036038101906106f19190613c03565b61285f565b6040516107039190613c3f565b60405180910390f35b34801561071857600080fd5b50610733600480360381019061072e9190613c03565b61289e565b60405161074394939291906142a7565b60405180910390f35b34801561075857600080fd5b50610773600480360381019061076e9190613f78565b612973565b005b34801561078157600080fd5b5061079c60048036038101906107979190613b38565b612ab4565b6040516107a991906138b5565b60405180910390f35b3480156107be57600080fd5b506107d960048036038101906107d49190613f78565b612c14565b6040516107e691906142f3565b60405180910390f35b3480156107fb57600080fd5b50610804612d80565b6040516108119190613c3f565b60405180910390f35b34801561082657600080fd5b5061082f612da6565b60405161083c919061443a565b60405180910390f35b34801561085157600080fd5b5061086c60048036038101906108679190613c03565b612ec6565b005b34801561087a57600080fd5b5061089560048036038101906108909190613f78565b612f68565b6040516108a594939291906142a7565b60405180910390f35b3480156108ba57600080fd5b506108c361304a565b6040516108d0919061469a565b60405180910390f35b3480156108e557600080fd5b5061090060048036038101906108fb9190613c03565b613240565b005b34801561090e57600080fd5b506109296004803603810190610924919061471c565b6132cf565b604051610936919061477c565b60405180910390f35b34801561094b57600080fd5b506109666004803603810190610961919061479e565b6134a9565b005b34801561097457600080fd5b5061098f600480360381019061098a9190613c03565b6135b8565b60405161099c91906138b5565b60405180910390f35b3480156109b157600080fd5b506109cc60048036038101906109c79190613c03565b613630565b6040516109d991906148d4565b60405180910390f35b50565b60025481565b60008054906101000a900473ffffffffffffffffffffffffffffffffffffffff1673ffffffffffffffffffffffffffffffffffffffff163373ffffffffffffffffffffffffffffffffffffffff1614610a70576040517f82b4290000000000000000000000000000000000000000000000000000000000815260040160405180910390fd5b82826009805490508210610ab9576040517f08c379a0000000000000000000000000000000000000000000000000000000008152600401610ab090614942565b60405180910390fd5b600a6000838152602001908152602001600020805490508110610b11576040517f08c379a0000000000000000000000000000000000000000000000000000000008152600401610b08906149ae565b60405180910390fd5b82600a60008781526020019081526020016000208581548110610b3757610b366149ce565b5b906000526020600020906004020160030160006101000a81548160ff0219169083151502179055505050505050565b6000670de0b6b3a764000047610b7c9190614a2c565b90506000606460065483610b909190614a2c565b610b9a9190614a9d565b90506000606460075484610bae9190614a2c565b610bb89190614a9d565b90506000606460085485610bcc9190614a2c565b610bd69190614a9d565b905060005b600380549050811015610c805760038181548110610bfc57610bfb6149ce565b5b9060005260206000200160009054906101000a900473ffffffffffffffffffffffffffffffffffffffff1673ffffffffffffffffffffffffffffffffffffffff166108fc859081150290604051600060405180830381858888f19350505050158015610c6c573d6000803e3d6000fd5b508080610c7890614ace565b915050610bdb565b5060005b600580549050811015610d295760058181548110610ca557610ca46149ce565b5b9060005260206000200160009054906101000a900473ffffffffffffffffffffffffffffffffffffffff1673ffffffffffffffffffffffffffffffffffffffff166108fc839081150290604051600060405180830381858888f19350505050158015610d15573d6000803e3d6000fd5b508080610d2190614ace565b915050610c84565b50600460009054906101000a900473ffffffffffffffffffffffffffffffffffffffff1673ffffffffffffffffffffffffffffffffffffffff166108fc839081150290604051600060405180830381858888f19350505050158015610d92573d6000803e3d6000fd5b505050505050565b60008054906101000a900473ffffffffffffffffffffffffffffffffffffffff1673ffffffffffffffffffffffffffffffffffffffff163373ffffffffffffffffffffffffffffffffffffffff1614610e1f576040517f82b4290000000000000000000000000000000000000000000000000000000000815260040160405180910390fd5b816009805490508110610e67576040517f08c379a0000000000000000000000000000000000000000000000000000000008152600401610e5e90614942565b60405180910390fd5b816000610e73826136e0565b118015610e8957506040610e86826136e0565b11155b610ec8576040517f08c379a0000000000000000000000000000000000000000000000000000000008152600401610ebf90614b62565b60405180910390fd5b8260005b600980549050811015610fe357610f9060098281548110610ef057610eef6149ce565b5b90600052602060002090600402016001018054610f0c90614bb1565b80601f0160208091040260200160405190810160405280929190818152602001828054610f3890614bb1565b8015610f855780601f10610f5a57610100808354040283529160200191610f85565b820191906000526020600020905b815481529060010190602001808311610f6857829003601f168201915b5050505050836136eb565b15610fd0576040517f08c379a0000000000000000000000000000000000000000000000000000000008152600401610fc790614c2e565b60405180910390fd5b8080610fdb90614ace565b915050610ecc565b508360098681548110610ff957610ff86149ce565b5b906000526020600020906004020160010190816110169190614dfa565b505050505050565b600033600073ffffffffffffffffffffffffffffffffffffffff168173ffffffffffffffffffffffffffffffffffffffff1603611090576040517f08c379a000000000000000000000000000000000000000000000000000000000815260040161108790614f18565b60405180910390fd5b3073ffffffffffffffffffffffffffffffffffffffff168173ffffffffffffffffffffffffffffffffffffffff16036110fe576040517f08c379a00000000000000000000000000000000000000000000000000000000081526004016110f590614f18565b60405180910390fd5b6000600a60008781526020019081526020016000208581548110611125576111246149ce565b5b906000526020600020906004020160030160006101000a81548160ff0219169083151502179055506000600160009054906101000a900473ffffffffffffffffffffffffffffffffffffffff1673ffffffffffffffffffffffffffffffffffffffff1663319592578787600a60008b815260200190815260200160002089815481106111b4576111b36149ce565b5b906000526020600020906004020160010160098b815481106111d9576111d86149ce565b5b90600052602060002090600402016002015489336040518763ffffffff1660e01b815260040161120e96959493929190614fbc565b6020604051808303816000875af115801561122d573d6000803e3d6000fd5b505050506040513d601f19601f820116820180604052508101906112519190615040565b905080925050509392505050565b6003818154811061126f57600080fd5b906000526020600020016000915054906101000a900473ffffffffffffffffffffffffffffffffffffffff1681565b6060806060806000600a60008781526020019081526020016000208054905067ffffffffffffffff8111156112d6576112d5613a0d565b5b6040519080825280602002602001820160405280156113045781602001602082028036833780820191505090505b5090506000600a60008881526020019081526020016000208054905067ffffffffffffffff81111561133957611338613a0d565b5b60405190808252806020026020018201604052801561136c57816020015b60608152602001906001900390816113575790505b5090506000600a60008981526020019081526020016000208054905067ffffffffffffffff8111156113a1576113a0613a0d565b5b6040519080825280602002602001820160405280156113cf5781602001602082028036833780820191505090505b5090506000600a60008a81526020019081526020016000208054905067ffffffffffffffff81111561140457611403613a0d565b5b6040519080825280602002602001820160405280156114325781602001602082028036833780820191505090505b50905060005b600a60008b81526020019081526020016000208054905081101561165b57600a60008b8152602001908152602001600020818154811061147b5761147a6149ce565b5b9060005260206000209060040201600001548582815181106114a05761149f6149ce565b5b602002602001018181525050600a60008b815260200190815260200160002081815481106114d1576114d06149ce565b5b906000526020600020906004020160010180546114ed90614bb1565b80601f016020809104026020016040519081016040528092919081815260200182805461151990614bb1565b80156115665780601f1061153b57610100808354040283529160200191611566565b820191906000526020600020905b81548152906001019060200180831161154957829003601f168201915b505050505084828151811061157e5761157d6149ce565b5b6020026020010181905250600a60008b815260200190815260200160002081815481106115ae576115ad6149ce565b5b9060005260206000209060040201600201548382815181106115d3576115d26149ce565b5b602002602001018181525050600a60008b81526020019081526020016000208181548110611604576116036149ce565b5b906000526020600020906004020160030160009054906101000a900460ff16828281518110611636576116356149ce565b5b602002602001019015159081151581525050808061165390614ace565b915050611438565b50838383839750975097509750505050509193509193565b61167b613727565b828260098054905082106116c4576040517f08c379a00000000000000000000000000000000000000000000000000000000081526004016116bb90614942565b60405180910390fd5b600a600083815260200190815260200160002080549050811061171c576040517f08c379a0000000000000000000000000000000000000000000000000000000008152600401611713906149ae565b60405180910390fd5b600a60008681526020019081526020016000208481548110611741576117406149ce565b5b90600052602060002090600402016040518060800160405290816000820154815260200160018201805461177490614bb1565b80601f01602080910402602001604051908101604052809291908181526020018280546117a090614bb1565b80156117ed5780601f106117c2576101008083540402835291602001916117ed565b820191906000526020600020905b8154815290600101906020018083116117d057829003601f168201915b50505050508152602001600282015481526020016003820160009054906101000a900460ff1615151515815250509250505092915050565b600033600073ffffffffffffffffffffffffffffffffffffffff168173ffffffffffffffffffffffffffffffffffffffff1603611897576040517f08c379a000000000000000000000000000000000000000000000000000000000815260040161188e90614f18565b60405180910390fd5b3073ffffffffffffffffffffffffffffffffffffffff168173ffffffffffffffffffffffffffffffffffffffff1603611905576040517f08c379a00000000000000000000000000000000000000000000000000000000081526004016118fc90614f18565b60405180910390fd5b600160009054906101000a900473ffffffffffffffffffffffffffffffffffffffff1673ffffffffffffffffffffffffffffffffffffffff1663f06fc961856040518263ffffffff1660e01b815260040161196091906138b5565b602060405180830381865afa15801561197d573d6000803e3d6000fd5b505050506040513d601f19601f820116820180604052508101906119a19190615040565b803410156119e4576040517f08c379a00000000000000000000000000000000000000000000000000000000081526004016119db906150b9565b60405180910390fd5b6000600160009054906101000a900473ffffffffffffffffffffffffffffffffffffffff1673ffffffffffffffffffffffffffffffffffffffff1663ff99a063876040518263ffffffff1660e01b8152600401611a4191906138b5565b600060405180830381865afa158015611a5e573d6000803e3d6000fd5b505050506040513d6000823e3d601f19601f82011682018060405250810190611a8791906152d1565b90506000600160009054906101000a900473ffffffffffffffffffffffffffffffffffffffff1673ffffffffffffffffffffffffffffffffffffffff16638e3cf2478833896040518463ffffffff1660e01b8152600401611aea9392919061531a565b6020604051808303816000875af1158015611b09573d6000803e3d6000fd5b505050506040513d601f19601f82011682018060405250810190611b2d9190615040565b90508160a00151341115611bfe5760008260a0015134611b4d9190615358565b905060003373ffffffffffffffffffffffffffffffffffffffff1682604051611b75906153bd565b60006040518083038185875af1925050503d8060008114611bb2576040519150601f19603f3d011682016040523d82523d6000602084013e611bb7565b606091505b5050905080611bfb576040517f08c379a0000000000000000000000000000000000000000000000000000000008152600401611bf29061541e565b60405180910390fd5b50505b8094505050505092915050565b6000600160009054906101000a900473ffffffffffffffffffffffffffffffffffffffff1673ffffffffffffffffffffffffffffffffffffffff16633e98d9a9836040518263ffffffff1660e01b8152600401611c6891906138b5565b602060405180830381865afa158015611c85573d6000803e3d6000fd5b505050506040513d601f19601f82011682018060405250810190611ca99190615453565b9050919050565b600082826009805490508210611cfb576040517f08c379a0000000000000000000000000000000000000000000000000000000008152600401611cf290614942565b60405180910390fd5b600a6000838152602001908152602001600020805490508110611d53576040517f08c379a0000000000000000000000000000000000000000000000000000000008152600401611d4a906149ae565b60405180910390fd5b600a60008681526020019081526020016000208481548110611d7857611d776149ce565b5b906000526020600020906004020160030160009054906101000a900460ff169250505092915050565b611da9613751565b816009805490508110611df1576040517f08c379a0000000000000000000000000000000000000000000000000000000008152600401611de890614942565b60405180910390fd5b60098381548110611e0557611e046149ce565b5b906000526020600020906004020160405180608001604052908160008201548152602001600182018054611e3890614bb1565b80601f0160208091040260200160405190810160405280929190818152602001828054611e6490614bb1565b8015611eb15780601f10611e8657610100808354040283529160200191611eb1565b820191906000526020600020905b815481529060010190602001808311611e9457829003601f168201915b50505050508152602001600282015481526020016003820160009054906101000a900460ff161515151581525050915050919050565b60008054906101000a900473ffffffffffffffffffffffffffffffffffffffff1673ffffffffffffffffffffffffffffffffffffffff163373ffffffffffffffffffffffffffffffffffffffff1614611f6c576040517f82b4290000000000000000000000000000000000000000000000000000000000815260040160405180910390fd5b82826009805490508210611fb5576040517f08c379a0000000000000000000000000000000000000000000000000000000008152600401611fac90614942565b60405180910390fd5b600a600083815260200190815260200160002080549050811061200d576040517f08c379a0000000000000000000000000000000000000000000000000000000008152600401612004906149ae565b60405180910390fd5b826000612019826136e0565b11801561202f5750604061202c826136e0565b11155b61206e576040517f08c379a0000000000000000000000000000000000000000000000000000000008152600401612065906154f2565b60405180910390fd5b8360005b6009805490508110156121cf5760005b600a6000838152602001908152602001600020805490508110156121bb57612168600a600084815260200190815260200160002082815481106120c8576120c76149ce565b5b906000526020600020906004020160010180546120e490614bb1565b80601f016020809104026020016040519081016040528092919081815260200182805461211090614bb1565b801561215d5780601f106121325761010080835404028352916020019161215d565b820191906000526020600020905b81548152906001019060200180831161214057829003601f168201915b5050505050846136eb565b156121a8576040517f08c379a000000000000000000000000000000000000000000000000000000000815260040161219f9061555e565b60405180910390fd5b80806121b390614ace565b915050612082565b5080806121c790614ace565b915050612072565b5084600a600089815260200190815260200160002087815481106121f6576121f56149ce565b5b906000526020600020906004020160010190816122139190614dfa565b5050505050505050565b60008054906101000a900473ffffffffffffffffffffffffffffffffffffffff1673ffffffffffffffffffffffffffffffffffffffff163373ffffffffffffffffffffffffffffffffffffffff16146122a2576040517f82b4290000000000000000000000000000000000000000000000000000000000815260040160405180910390fd5b806000806101000a81548173ffffffffffffffffffffffffffffffffffffffff021916908373ffffffffffffffffffffffffffffffffffffffff16021790555050565b6000600a6000838152602001908152602001600020805490509050919050565b600b5481565b600080670de0b6b3a7640000476123229190614a2c565b90508091505090565b6060600a6000838152602001908152602001600020805480602002602001604051908101604052809291908181526020016000905b8282101561245357838290600052602060002090600402016040518060800160405290816000820154815260200160018201805461239d90614bb1565b80601f01602080910402602001604051908101604052809291908181526020018280546123c990614bb1565b80156124165780601f106123eb57610100808354040283529160200191612416565b820191906000526020600020905b8154815290600101906020018083116123f957829003601f168201915b50505050508152602001600282015481526020016003820160009054906101000a900460ff16151515158152505081526020019060010190612360565b505050509050919050565b60008054906101000a900473ffffffffffffffffffffffffffffffffffffffff1681565b6000600980549050905090565b600c5481565b60008054906101000a900473ffffffffffffffffffffffffffffffffffffffff1673ffffffffffffffffffffffffffffffffffffffff163373ffffffffffffffffffffffffffffffffffffffff161461251a576040517f82b4290000000000000000000000000000000000000000000000000000000000815260040160405180910390fd5b80600b8190555050565b606080606080600060098054905067ffffffffffffffff81111561254b5761254a613a0d565b5b6040519080825280602002602001820160405280156125795781602001602082028036833780820191505090505b509050600060098054905067ffffffffffffffff81111561259d5761259c613a0d565b5b6040519080825280602002602001820160405280156125d057816020015b60608152602001906001900390816125bb5790505b509050600060098054905067ffffffffffffffff8111156125f4576125f3613a0d565b5b6040519080825280602002602001820160405280156126225781602001602082028036833780820191505090505b509050600060098054905067ffffffffffffffff81111561264657612645613a0d565b5b6040519080825280602002602001820160405280156126745781602001602082028036833780820191505090505b50905060005b600980549050811015612848576009818154811061269b5761269a6149ce565b5b9060005260206000209060040201600001548582815181106126c0576126bf6149ce565b5b602002602001018181525050600981815481106126e0576126df6149ce565b5b906000526020600020906004020160010180546126fc90614bb1565b80601f016020809104026020016040519081016040528092919081815260200182805461272890614bb1565b80156127755780601f1061274a57610100808354040283529160200191612775565b820191906000526020600020905b81548152906001019060200180831161275857829003601f168201915b505050505084828151811061278d5761278c6149ce565b5b6020026020010181905250600981815481106127ac576127ab6149ce565b5b9060005260206000209060040201600201548382815181106127d1576127d06149ce565b5b602002602001018181525050600981815481106127f1576127f06149ce565b5b906000526020600020906004020160030160009054906101000a900460ff16828281518110612823576128226149ce565b5b602002602001019015159081151581525050808061284090614ace565b91505061267a565b508383838397509750975097505050505090919293565b6005818154811061286f57600080fd5b906000526020600020016000915054906101000a900473ffffffffffffffffffffffffffffffffffffffff1681565b600981815481106128ae57600080fd5b90600052602060002090600402016000915090508060000154908060010180546128d790614bb1565b80601f016020809104026020016040519081016040528092919081815260200182805461290390614bb1565b80156129505780601f1061292557610100808354040283529160200191612950565b820191906000526020600020905b81548152906001019060200180831161293357829003601f168201915b5050505050908060020154908060030160009054906101000a900460ff16905084565b60008054906101000a900473ffffffffffffffffffffffffffffffffffffffff1673ffffffffffffffffffffffffffffffffffffffff163373ffffffffffffffffffffffffffffffffffffffff16146129f8576040517f82b4290000000000000000000000000000000000000000000000000000000000815260040160405180910390fd5b816009805490508110612a40576040517f08c379a0000000000000000000000000000000000000000000000000000000008152600401612a3790614942565b60405180910390fd5b8160008111612a84576040517f08c379a0000000000000000000000000000000000000000000000000000000008152600401612a7b906155ca565b60405180910390fd5b8260098581548110612a9957612a986149ce565b5b90600052602060002090600402016002018190555050505050565b60008060009054906101000a900473ffffffffffffffffffffffffffffffffffffffff1673ffffffffffffffffffffffffffffffffffffffff163373ffffffffffffffffffffffffffffffffffffffff1614612b3c576040517f82b4290000000000000000000000000000000000000000000000000000000000815260040160405180910390fd5b6000600a60008581526020019081526020016000208054905090506000604051806080016040528083815260200185815260200160008152602001600115158152509050600a6000868152602001908152602001600020819080600181540180825580915050600190039060005260206000209060040201600090919091909150600082015181600001556020820151816001019081612bdc9190614dfa565b506040820151816002015560608201518160030160006101000a81548160ff0219169083151502179055505050819250505092915050565b606082826009805490508210612c5f576040517f08c379a0000000000000000000000000000000000000000000000000000000008152600401612c5690614942565b60405180910390fd5b600a6000838152602001908152602001600020805490508110612cb7576040517f08c379a0000000000000000000000000000000000000000000000000000000008152600401612cae906149ae565b60405180910390fd5b600a60008681526020019081526020016000208481548110612cdc57612cdb6149ce565b5b90600052602060002090600402016001018054612cf890614bb1565b80601f0160208091040260200160405190810160405280929190818152602001828054612d2490614bb1565b8015612d715780601f10612d4657610100808354040283529160200191612d71565b820191906000526020600020905b815481529060010190602001808311612d5457829003601f168201915b50505050509250505092915050565b600460009054906101000a900473ffffffffffffffffffffffffffffffffffffffff1681565b60606009805480602002602001604051908101604052809291908181526020016000905b82821015612ebd578382906000526020600020906004020160405180608001604052908160008201548152602001600182018054612e0790614bb1565b80601f0160208091040260200160405190810160405280929190818152602001828054612e3390614bb1565b8015612e805780601f10612e5557610100808354040283529160200191612e80565b820191906000526020600020905b815481529060010190602001808311612e6357829003601f168201915b50505050508152602001600282015481526020016003820160009054906101000a900460ff16151515158152505081526020019060010190612dca565b50505050905090565b600160009054906101000a900473ffffffffffffffffffffffffffffffffffffffff1673ffffffffffffffffffffffffffffffffffffffff1663e95a644f826040518263ffffffff1660e01b8152600401612f2191906138b5565b6020604051808303816000875af1158015612f40573d6000803e3d6000fd5b505050506040513d601f19601f82011682018060405250810190612f649190615453565b5050565b600a6020528160005260406000208181548110612f8457600080fd5b906000526020600020906004020160009150915050806000015490806001018054612fae90614bb1565b80601f0160208091040260200160405190810160405280929190818152602001828054612fda90614bb1565b80156130275780601f10612ffc57610100808354040283529160200191613027565b820191906000526020600020905b81548152906001019060200180831161300a57829003601f168201915b5050505050908060020154908060030160009054906101000a900460ff16905084565b60606000600160009054906101000a900473ffffffffffffffffffffffffffffffffffffffff1673ffffffffffffffffffffffffffffffffffffffff1663f67e15ba6040518163ffffffff1660e01b8152600401600060405180830381865afa1580156130bb573d6000803e3d6000fd5b505050506040513d6000823e3d601f19601f820116820180604052508101906130e491906156ad565b90506000815167ffffffffffffffff81111561310357613102613a0d565b5b60405190808252806020026020018201604052801561313c57816020015b61312961377b565b8152602001906001900390816131215790505b50905060005b825181101561323757600160009054906101000a900473ffffffffffffffffffffffffffffffffffffffff1673ffffffffffffffffffffffffffffffffffffffff1663ff99a06384838151811061319c5761319b6149ce565b5b60200260200101516040518263ffffffff1660e01b81526004016131c091906138b5565b600060405180830381865afa1580156131dd573d6000803e3d6000fd5b505050506040513d6000823e3d601f19601f8201168201806040525081019061320691906152d1565b828281518110613219576132186149ce565b5b6020026020010181905250808061322f90614ace565b915050613142565b50809250505090565b60008054906101000a900473ffffffffffffffffffffffffffffffffffffffff1673ffffffffffffffffffffffffffffffffffffffff163373ffffffffffffffffffffffffffffffffffffffff16146132c5576040517f82b4290000000000000000000000000000000000000000000000000000000000815260040160405180910390fd5b80600c8190555050565b606060008054906101000a900473ffffffffffffffffffffffffffffffffffffffff1673ffffffffffffffffffffffffffffffffffffffff163373ffffffffffffffffffffffffffffffffffffffff1614613356576040517f82b4290000000000000000000000000000000000000000000000000000000000815260040160405180910390fd5b6000838390501161339c576040517f08c379a000000000000000000000000000000000000000000000000000000000815260040161339390615742565b60405180910390fd5b60008383905067ffffffffffffffff8111156133bb576133ba613a0d565b5b6040519080825280602002602001820160405280156133e95781602001602082028036833780820191505090505b50905060005b8484905081101561349d5761346b86868684818110613411576134106149ce565b5b90506020028101906134239190615771565b8080601f016020809104026020016040519081016040528093929190818152602001838380828437600081840152601f19601f82011690508083019250505050505050612ab4565b82828151811061347e5761347d6149ce565b5b602002602001018181525050808061349590614ace565b9150506133ef565b50809150509392505050565b60008054906101000a900473ffffffffffffffffffffffffffffffffffffffff1673ffffffffffffffffffffffffffffffffffffffff163373ffffffffffffffffffffffffffffffffffffffff161461352e576040517f82b4290000000000000000000000000000000000000000000000000000000000815260040160405180910390fd5b816009805490508110613576576040517f08c379a000000000000000000000000000000000000000000000000000000000815260040161356d90614942565b60405180910390fd5b816009848154811061358b5761358a6149ce565b5b906000526020600020906004020160030160006101000a81548160ff021916908315150217905550505050565b6000816009805490508110613602576040517f08c379a00000000000000000000000000000000000000000000000000000000081526004016135f990614942565b60405180910390fd5b60098381548110613616576136156149ce565b5b906000526020600020906004020160020154915050919050565b61363861377b565b600160009054906101000a900473ffffffffffffffffffffffffffffffffffffffff1673ffffffffffffffffffffffffffffffffffffffff1663ff99a063836040518263ffffffff1660e01b815260040161369391906138b5565b600060405180830381865afa1580156136b0573d6000803e3d6000fd5b505050506040513d6000823e3d601f19601f820116820180604052508101906136d991906152d1565b9050919050565b600081519050919050565b60006136f783836136ff565b905092915050565b60008151835114801561371f575081805190602001208380519060200120145b905092915050565b60405180608001604052806000815260200160608152602001600081526020016000151581525090565b60405180608001604052806000815260200160608152602001600081526020016000151581525090565b604051806101600160405280600081526020016000815260200160008152602001600081526020016060815260200160008152602001600060028111156137c5576137c4614488565b5b8152602001600073ffffffffffffffffffffffffffffffffffffffff1681526020016060815260200160008152602001600081525090565b6000604051905090565b600080fd5b600080fd5b600073ffffffffffffffffffffffffffffffffffffffff82169050919050565b600061383c82613811565b9050919050565b61384c81613831565b811461385757600080fd5b50565b60008135905061386981613843565b92915050565b60006020828403121561388557613884613807565b5b60006138938482850161385a565b91505092915050565b6000819050919050565b6138af8161389c565b82525050565b60006020820190506138ca60008301846138a6565b92915050565b6138d98161389c565b81146138e457600080fd5b50565b6000813590506138f6816138d0565b92915050565b60008115159050919050565b613911816138fc565b811461391c57600080fd5b50565b60008135905061392e81613908565b92915050565b60008060006060848603121561394d5761394c613807565b5b600061395b868287016138e7565b935050602061396c868287016138e7565b925050604061397d8682870161391f565b9150509250925092565b600061399282613811565b9050919050565b6139a281613987565b81146139ad57600080fd5b50565b6000813590506139bf81613999565b92915050565b6000602082840312156139db576139da613807565b5b60006139e9848285016139b0565b91505092915050565b600080fd5b600080fd5b6000601f19601f8301169050919050565b7f4e487b7100000000000000000000000000000000000000000000000000000000600052604160045260246000fd5b613a45826139fc565b810181811067ffffffffffffffff82111715613a6457613a63613a0d565b5b80604052505050565b6000613a776137fd565b9050613a838282613a3c565b919050565b600067ffffffffffffffff821115613aa357613aa2613a0d565b5b613aac826139fc565b9050602081019050919050565b82818337600083830152505050565b6000613adb613ad684613a88565b613a6d565b905082815260208101848484011115613af757613af66139f7565b5b613b02848285613ab9565b509392505050565b600082601f830112613b1f57613b1e6139f2565b5b8135613b2f848260208601613ac8565b91505092915050565b60008060408385031215613b4f57613b4e613807565b5b6000613b5d858286016138e7565b925050602083013567ffffffffffffffff811115613b7e57613b7d61380c565b5b613b8a85828601613b0a565b9150509250929050565b600080600060608486031215613bad57613bac613807565b5b6000613bbb868287016138e7565b9350506020613bcc868287016138e7565b925050604084013567ffffffffffffffff811115613bed57613bec61380c565b5b613bf986828701613b0a565b9150509250925092565b600060208284031215613c1957613c18613807565b5b6000613c27848285016138e7565b91505092915050565b613c3981613987565b82525050565b6000602082019050613c546000830184613c30565b92915050565b600081519050919050565b600082825260208201905092915050565b6000819050602082019050919050565b613c8f8161389c565b82525050565b6000613ca18383613c86565b60208301905092915050565b6000602082019050919050565b6000613cc582613c5a565b613ccf8185613c65565b9350613cda83613c76565b8060005b83811015613d0b578151613cf28882613c95565b9750613cfd83613cad565b925050600181019050613cde565b5085935050505092915050565b600081519050919050565b600082825260208201905092915050565b6000819050602082019050919050565b600081519050919050565b600082825260208201905092915050565b60005b83811015613d7e578082015181840152602081019050613d63565b60008484015250505050565b6000613d9582613d44565b613d9f8185613d4f565b9350613daf818560208601613d60565b613db8816139fc565b840191505092915050565b6000613dcf8383613d8a565b905092915050565b6000602082019050919050565b6000613def82613d18565b613df98185613d23565b935083602082028501613e0b85613d34565b8060005b85811015613e475784840389528151613e288582613dc3565b9450613e3383613dd7565b925060208a01995050600181019050613e0f565b50829750879550505050505092915050565b600081519050919050565b600082825260208201905092915050565b6000819050602082019050919050565b613e8e816138fc565b82525050565b6000613ea08383613e85565b60208301905092915050565b6000602082019050919050565b6000613ec482613e59565b613ece8185613e64565b9350613ed983613e75565b8060005b83811015613f0a578151613ef18882613e94565b9750613efc83613eac565b925050600181019050613edd565b5085935050505092915050565b60006080820190508181036000830152613f318187613cba565b90508181036020830152613f458186613de4565b90508181036040830152613f598185613cba565b90508181036060830152613f6d8184613eb9565b905095945050505050565b60008060408385031215613f8f57613f8e613807565b5b6000613f9d858286016138e7565b9250506020613fae858286016138e7565b9150509250929050565b6000608083016000830151613fd06000860182613c86565b5060208301518482036020860152613fe88282613d8a565b9150506040830151613ffd6040860182613c86565b5060608301516140106060860182613e85565b508091505092915050565b600060208201905081810360008301526140358184613fb8565b905092915050565b614046816138fc565b82525050565b6000602082019050614061600083018461403d565b92915050565b600060808301600083015161407f6000860182613c86565b50602083015184820360208601526140978282613d8a565b91505060408301516140ac6040860182613c86565b5060608301516140bf6060860182613e85565b508091505092915050565b600060208201905081810360008301526140e48184614067565b905092915050565b600081519050919050565b600082825260208201905092915050565b6000819050602082019050919050565b60006080830160008301516141306000860182613c86565b50602083015184820360208601526141488282613d8a565b915050604083015161415d6040860182613c86565b5060608301516141706060860182613e85565b508091505092915050565b60006141878383614118565b905092915050565b6000602082019050919050565b60006141a7826140ec565b6141b181856140f7565b9350836020820285016141c385614108565b8060005b858110156141ff57848403895281516141e0858261417b565b94506141eb8361418f565b925060208a019950506001810190506141c7565b50829750879550505050505092915050565b6000602082019050818103600083015261422b818461419c565b905092915050565b61423c81613831565b82525050565b60006020820190506142576000830184614233565b92915050565b600082825260208201905092915050565b600061427982613d44565b614283818561425d565b9350614293818560208601613d60565b61429c816139fc565b840191505092915050565b60006080820190506142bc60008301876138a6565b81810360208301526142ce818661426e565b90506142dd60408301856138a6565b6142ea606083018461403d565b95945050505050565b6000602082019050818103600083015261430d818461426e565b905092915050565b600081519050919050565b600082825260208201905092915050565b6000819050602082019050919050565b60006080830160008301516143596000860182613c86565b50602083015184820360208601526143718282613d8a565b91505060408301516143866040860182613c86565b5060608301516143996060860182613e85565b508091505092915050565b60006143b08383614341565b905092915050565b6000602082019050919050565b60006143d082614315565b6143da8185614320565b9350836020820285016143ec85614331565b8060005b85811015614428578484038952815161440985826143a4565b9450614414836143b8565b925060208a019950506001810190506143f0565b50829750879550505050505092915050565b6000602082019050818103600083015261445481846143c5565b905092915050565b600081519050919050565b600082825260208201905092915050565b6000819050602082019050919050565b7f4e487b7100000000000000000000000000000000000000000000000000000000600052602160045260246000fd5b600381106144c8576144c7614488565b5b50565b60008190506144d9826144b7565b919050565b60006144e9826144cb565b9050919050565b6144f9816144de565b82525050565b61450881613831565b82525050565b6000610160830160008301516145276000860182613c86565b50602083015161453a6020860182613c86565b50604083015161454d6040860182613c86565b5060608301516145606060860182613c86565b50608083015184820360808601526145788282613d8a565b91505060a083015161458d60a0860182613c86565b5060c08301516145a060c08601826144f0565b5060e08301516145b360e08601826144ff565b506101008301518482036101008601526145cd8282613d8a565b9150506101208301516145e4610120860182613c86565b506101408301516145f9610140860182613c86565b508091505092915050565b6000614610838361450e565b905092915050565b6000602082019050919050565b60006146308261445c565b61463a8185614467565b93508360208202850161464c85614478565b8060005b8581101561468857848403895281516146698582614604565b945061467483614618565b925060208a01995050600181019050614650565b50829750879550505050505092915050565b600060208201905081810360008301526146b48184614625565b905092915050565b600080fd5b600080fd5b60008083601f8401126146dc576146db6139f2565b5b8235905067ffffffffffffffff8111156146f9576146f86146bc565b5b602083019150836020820283011115614715576147146146c1565b5b9250929050565b60008060006040848603121561473557614734613807565b5b6000614743868287016138e7565b935050602084013567ffffffffffffffff8111156147645761476361380c565b5b614770868287016146c6565b92509250509250925092565b600060208201905081810360008301526147968184613cba565b905092915050565b600080604083850312156147b5576147b4613807565b5b60006147c3858286016138e7565b92505060206147d48582860161391f565b9150509250929050565b6000610160830160008301516147f76000860182613c86565b50602083015161480a6020860182613c86565b50604083015161481d6040860182613c86565b5060608301516148306060860182613c86565b50608083015184820360808601526148488282613d8a565b91505060a083015161485d60a0860182613c86565b5060c083015161487060c08601826144f0565b5060e083015161488360e08601826144ff565b5061010083015184820361010086015261489d8282613d8a565b9150506101208301516148b4610120860182613c86565b506101408301516148c9610140860182613c86565b508091505092915050565b600060208201905081810360008301526148ee81846147de565b905092915050565b7f53656174207479706520646f6573206e6f742065786973740000000000000000600082015250565b600061492c60188361425d565b9150614937826148f6565b602082019050919050565b6000602082019050818103600083015261495b8161491f565b9050919050565b7f5365617420646f6573206e6f7420657869737400000000000000000000000000600082015250565b600061499860138361425d565b91506149a382614962565b602082019050919050565b600060208201905081810360008301526149c78161498b565b9050919050565b7f4e487b7100000000000000000000000000000000000000000000000000000000600052603260045260246000fd5b7f4e487b7100000000000000000000000000000000000000000000000000000000600052601160045260246000fd5b6000614a378261389c565b9150614a428361389c565b9250828202614a508161389c565b91508282048414831517614a6757614a666149fd565b5b5092915050565b7f4e487b7100000000000000000000000000000000000000000000000000000000600052601260045260246000fd5b6000614aa88261389c565b9150614ab38361389c565b925082614ac357614ac2614a6e565b5b828204905092915050565b6000614ad98261389c565b91507fffffffffffffffffffffffffffffffffffffffffffffffffffffffffffffffff8203614b0b57614b0a6149fd565b5b600182019050919050565b7f536561742074797065206e616d65206973206e6f742076616c69640000000000600082015250565b6000614b4c601b8361425d565b9150614b5782614b16565b602082019050919050565b60006020820190508181036000830152614b7b81614b3f565b9050919050565b7f4e487b7100000000000000000000000000000000000000000000000000000000600052602260045260246000fd5b60006002820490506001821680614bc957607f821691505b602082108103614bdc57614bdb614b82565b5b50919050565b7f536561742074797065206e616d6520616c726561647920757365640000000000600082015250565b6000614c18601b8361425d565b9150614c2382614be2565b602082019050919050565b60006020820190508181036000830152614c4781614c0b565b9050919050565b60008190508160005260206000209050919050565b60006020601f8301049050919050565b600082821b905092915050565b600060088302614cb07fffffffffffffffffffffffffffffffffffffffffffffffffffffffffffffffff82614c73565b614cba8683614c73565b95508019841693508086168417925050509392505050565b6000819050919050565b6000614cf7614cf2614ced8461389c565b614cd2565b61389c565b9050919050565b6000819050919050565b614d1183614cdc565b614d25614d1d82614cfe565b848454614c80565b825550505050565b600090565b614d3a614d2d565b614d45818484614d08565b505050565b5b81811015614d6957614d5e600082614d32565b600181019050614d4b565b5050565b601f821115614dae57614d7f81614c4e565b614d8884614c63565b81016020851015614d97578190505b614dab614da385614c63565b830182614d4a565b50505b505050565b600082821c905092915050565b6000614dd160001984600802614db3565b1980831691505092915050565b6000614dea8383614dc0565b9150826002028217905092915050565b614e0382613d44565b67ffffffffffffffff811115614e1c57614e1b613a0d565b5b614e268254614bb1565b614e31828285614d6d565b600060209050601f831160018114614e645760008415614e52578287015190505b614e5c8582614dde565b865550614ec4565b601f198416614e7286614c4e565b60005b82811015614e9a57848901518255600182019150602085019450602081019050614e75565b86831015614eb75784890151614eb3601f891682614dc0565b8355505b6001600288020188555050505b505050505050565b7f496e76616c69642064657374696e6174696f6e20616464726573730000000000600082015250565b6000614f02601b8361425d565b9150614f0d82614ecc565b602082019050919050565b60006020820190508181036000830152614f3181614ef5565b9050919050565b60008154614f4581614bb1565b614f4f818661425d565b94506001821660008114614f6a5760018114614f8057614fb3565b60ff198316865281151560200286019350614fb3565b614f8985614c4e565b60005b83811015614fab57815481890152600182019150602081019050614f8c565b808801955050505b50505092915050565b600060c082019050614fd160008301896138a6565b614fde60208301886138a6565b8181036040830152614ff08187614f38565b9050614fff60608301866138a6565b8181036080830152615011818561426e565b905061502060a0830184614233565b979650505050505050565b60008151905061503a816138d0565b92915050565b60006020828403121561505657615055613807565b5b60006150648482850161502b565b91505092915050565b7f4e6f2068617920737566696369656e746520424e420000000000000000000000600082015250565b60006150a360158361425d565b91506150ae8261506d565b602082019050919050565b600060208201905081810360008301526150d281615096565b9050919050565b600080fd5b600080fd5b60006150f66150f184613a88565b613a6d565b905082815260208101848484011115615112576151116139f7565b5b61511d848285613d60565b509392505050565b600082601f83011261513a576151396139f2565b5b815161514a8482602086016150e3565b91505092915050565b6003811061516057600080fd5b50565b60008151905061517281615153565b92915050565b60008151905061518781613843565b92915050565b600061016082840312156151a4576151a36150d9565b5b6151af610160613a6d565b905060006151bf8482850161502b565b60008301525060206151d38482850161502b565b60208301525060406151e78482850161502b565b60408301525060606151fb8482850161502b565b606083015250608082015167ffffffffffffffff81111561521f5761521e6150de565b5b61522b84828501615125565b60808301525060a061523f8482850161502b565b60a08301525060c061525384828501615163565b60c08301525060e061526784828501615178565b60e08301525061010082015167ffffffffffffffff81111561528c5761528b6150de565b5b61529884828501615125565b610100830152506101206152ae8482850161502b565b610120830152506101406152c48482850161502b565b6101408301525092915050565b6000602082840312156152e7576152e6613807565b5b600082015167ffffffffffffffff8111156153055761530461380c565b5b6153118482850161518d565b91505092915050565b600060608201905061532f60008301866138a6565b61533c6020830185614233565b818103604083015261534e818461426e565b9050949350505050565b60006153638261389c565b915061536e8361389c565b9250828203905081811115615386576153856149fd565b5b92915050565b600081905092915050565b50565b60006153a760008361538c565b91506153b282615397565b600082019050919050565b60006153c88261539a565b9150819050919050565b7f4661696c656420746f2073656e64204574686572000000000000000000000000600082015250565b600061540860148361425d565b9150615413826153d2565b602082019050919050565b60006020820190508181036000830152615437816153fb565b9050919050565b60008151905061544d81613908565b92915050565b60006020828403121561546957615468613807565b5b60006154778482850161543e565b91505092915050565b7f53656174206e616d652063616e6e6f74206265206c6f6e676572207468616e2060008201527f3332206368617261637465727300000000000000000000000000000000000000602082015250565b60006154dc602d8361425d565b91506154e782615480565b604082019050919050565b6000602082019050818103600083015261550b816154cf565b9050919050565b7f53656174206e616d6520616c7265616479207573656400000000000000000000600082015250565b600061554860168361425d565b915061555382615512565b602082019050919050565b600060208201905081810360008301526155778161553b565b9050919050565b7f53656174207072696365206973207a65726f0000000000000000000000000000600082015250565b60006155b460128361425d565b91506155bf8261557e565b602082019050919050565b600060208201905081810360008301526155e3816155a7565b9050919050565b600067ffffffffffffffff82111561560557615604613a0d565b5b602082029050602081019050919050565b6000615629615624846155ea565b613a6d565b9050808382526020820190506020840283018581111561564c5761564b6146c1565b5b835b818110156156755780615661888261502b565b84526020840193505060208101905061564e565b5050509392505050565b600082601f830112615694576156936139f2565b5b81516156a4848260208601615616565b91505092915050565b6000602082840312156156c3576156c2613807565b5b600082015167ffffffffffffffff8111156156e1576156e061380c565b5b6156ed8482850161567f565b91505092915050565b7f4e6f20736561747320746f206164640000000000000000000000000000000000600082015250565b600061572c600f8361425d565b9150615737826156f6565b602082019050919050565b6000602082019050818103600083015261575b8161571f565b9050919050565b600080fd5b600080fd5b600080fd5b6000808335600160200384360303811261578e5761578d615762565b5b80840192508235915067ffffffffffffffff8211156157b0576157af615767565b5b6020830192506001820236038313156157cc576157cb61576c565b5b50925092905056fea264697066735822122007b3ecaadb40d6ac062d78f51e04c54d64556cca1eb1ec5776f5c448d594c27764736f6c6343000811003360a06040523480156200001157600080fd5b5060405162005363380380620053638339818101604052810190620000379190620001c3565b6040518060400160405280600681526020017f5469636b657400000000000000000000000000000000000000000000000000008152506040518060400160405280600481526020017f5449434b000000000000000000000000000000000000000000000000000000008152508160009081620000b491906200046f565b508060019081620000c691906200046f565b5050503373ffffffffffffffffffffffffffffffffffffffff1660808173ffffffffffffffffffffffffffffffffffffffff168152505080600760006101000a81548173ffffffffffffffffffffffffffffffffffffffff021916908373ffffffffffffffffffffffffffffffffffffffff1602179055505062000556565b600080fd5b600073ffffffffffffffffffffffffffffffffffffffff82169050919050565b600062000177826200014a565b9050919050565b60006200018b826200016a565b9050919050565b6200019d816200017e565b8114620001a957600080fd5b50565b600081519050620001bd8162000192565b92915050565b600060208284031215620001dc57620001db62000145565b5b6000620001ec84828501620001ac565b91505092915050565b600081519050919050565b7f4e487b7100000000000000000000000000000000000000000000000000000000600052604160045260246000fd5b7f4e487b7100000000000000000000000000000000000000000000000000000000600052602260045260246000fd5b600060028204905060018216806200027757607f821691505b6020821081036200028d576200028c6200022f565b5b50919050565b60008190508160005260206000209050919050565b60006020601f8301049050919050565b600082821b905092915050565b600060088302620002f77fffffffffffffffffffffffffffffffffffffffffffffffffffffffffffffffff82620002b8565b620003038683620002b8565b95508019841693508086168417925050509392505050565b6000819050919050565b6000819050919050565b6000620003506200034a62000344846200031b565b62000325565b6200031b565b9050919050565b6000819050919050565b6200036c836200032f565b620003846200037b8262000357565b848454620002c5565b825550505050565b600090565b6200039b6200038c565b620003a881848462000361565b505050565b5b81811015620003d057620003c460008262000391565b600181019050620003ae565b5050565b601f8211156200041f57620003e98162000293565b620003f484620002a8565b8101602085101562000404578190505b6200041c6200041385620002a8565b830182620003ad565b50505b505050565b600082821c905092915050565b6000620004446000198460080262000424565b1980831691505092915050565b60006200045f838362000431565b9150826002028217905092915050565b6200047a82620001f5565b67ffffffffffffffff81111562000496576200049562000200565b5b620004a282546200025e565b620004af828285620003d4565b600060209050601f831160018114620004e75760008415620004d2578287015190505b620004de858262000451565b8655506200054e565b601f198416620004f78662000293565b60005b828110156200052157848901518255600182019150602085019450602081019050620004fa565b868310156200054157848901516200053d601f89168262000431565b8355505b6001600288020188555050505b505050505050565b608051614ddc62000587600039600081816109cb01528181610e600152818161128c01526117310152614ddc6000f3fe608060405234801561001057600080fd5b50600436106101da5760003560e01c806395d89b4111610104578063e95a644f116100a2578063f64bfaba11610071578063f64bfaba146105d5578063f67e15ba146105f3578063fa71308314610611578063ff99a0631461064b576101da565b8063e95a644f14610515578063e985e9c514610545578063eeca0fda14610575578063f06fc961146105a5576101da565b8063a460b817116100de578063a460b81714610491578063b88d4fde146104ad578063c87b56dd146104c9578063cb8764f4146104f9576101da565b806395d89b411461042757806395ef1aeb14610445578063a22cb46514610475576101da565b80633e98d9a91161017c57806370a082311161014b57806370a082311461038d5780637555fa82146103bd5780638da5cb5b146103d95780638e3cf247146103f7576101da565b80633e98d9a9146102f557806342842e0e146103255780636352211e146103415780636f75b00c14610371576101da565b8063095ea7b3116101b8578063095ea7b31461025d57806323b872dd146102795780632a55feec1461029557806331959257146102c5576101da565b806301ffc9a7146101df57806306fdde031461020f578063081812fc1461022d575b600080fd5b6101f960048036038101906101f49190613094565b61067b565b60405161020691906130dc565b60405180910390f35b61021761075d565b6040516102249190613187565b60405180910390f35b610247600480360381019061024291906131df565b6107ef565b604051610254919061324d565b60405180910390f35b61027760048036038101906102729190613294565b610835565b005b610293600480360381019061028e91906132d4565b61094c565b005b6102af60048036038101906102aa9190613327565b6109ac565b6040516102bc91906130dc565b60405180910390f35b6102df60048036038101906102da91906134e9565b6109c7565b6040516102ec91906135c3565b60405180910390f35b61030f600480360381019061030a91906131df565b610d7b565b60405161031c91906130dc565b60405180910390f35b61033f600480360381019061033a91906132d4565b610d8d565b005b61035b600480360381019061035691906131df565b610dad565b604051610368919061324d565b60405180910390f35b61038b60048036038101906103869190613327565b610e5e565b005b6103a760048036038101906103a29190613327565b611086565b6040516103b491906135c3565b60405180910390f35b6103d760048036038101906103d29190613294565b61113d565b005b6103e161128a565b6040516103ee919061324d565b60405180910390f35b610411600480360381019061040c91906135de565b6112ae565b60405161041e91906135c3565b60405180910390f35b61042f61163e565b60405161043c9190613187565b60405180910390f35b61045f600480360381019061045a9190613327565b6116d0565b60405161046c91906135c3565b60405180910390f35b61048f600480360381019061048a9190613679565b611719565b005b6104ab60048036038101906104a691906136de565b61172f565b005b6104c760048036038101906104c291906137bf565b6117fa565b005b6104e360048036038101906104de91906131df565b61185c565b6040516104f09190613187565b60405180910390f35b610513600480360381019061050e9190613294565b6118c4565b005b61052f600480360381019061052a91906131df565b6119a3565b60405161053c91906130dc565b60405180910390f35b61055f600480360381019061055a9190613842565b611adc565b60405161056c91906130dc565b60405180910390f35b61058f600480360381019061058a9190613882565b611b70565b60405161059c91906130dc565b60405180910390f35b6105bf60048036038101906105ba91906131df565b611bcc565b6040516105cc91906135c3565b60405180910390f35b6105dd611c36565b6040516105ea9190613980565b60405180910390f35b6105fb611cc4565b6040516106089190613a60565b60405180910390f35b61062b600480360381019061062691906131df565b611e45565b6040516106429b9a99989796959493929190613af9565b60405180910390f35b610665600480360381019061066091906131df565b611fdc565b6040516106729190613d01565b60405180910390f35b60007f80ac58cd000000000000000000000000000000000000000000000000000000007bffffffffffffffffffffffffffffffffffffffffffffffffffffffff1916827bffffffffffffffffffffffffffffffffffffffffffffffffffffffff1916148061074657507f5b5e139f000000000000000000000000000000000000000000000000000000007bffffffffffffffffffffffffffffffffffffffffffffffffffffffff1916827bffffffffffffffffffffffffffffffffffffffffffffffffffffffff1916145b8061075657506107558261224f565b5b9050919050565b60606000805461076c90613d52565b80601f016020809104026020016040519081016040528092919081815260200182805461079890613d52565b80156107e55780601f106107ba576101008083540402835291602001916107e5565b820191906000526020600020905b8154815290600101906020018083116107c857829003601f168201915b5050505050905090565b60006107fa826122b9565b6004600083815260200190815260200160002060009054906101000a900473ffffffffffffffffffffffffffffffffffffffff169050919050565b600061084082610dad565b90508073ffffffffffffffffffffffffffffffffffffffff168373ffffffffffffffffffffffffffffffffffffffff16036108b0576040517f08c379a00000000000000000000000000000000000000000000000000000000081526004016108a790613df5565b60405180910390fd5b8073ffffffffffffffffffffffffffffffffffffffff166108cf612304565b73ffffffffffffffffffffffffffffffffffffffff1614806108fe57506108fd816108f8612304565b611adc565b5b61093d576040517f08c379a000000000000000000000000000000000000000000000000000000000815260040161093490613e87565b60405180910390fd5b610947838361230c565b505050565b61095d610957612304565b826123c5565b61099c576040517f08c379a000000000000000000000000000000000000000000000000000000000815260040161099390613f19565b60405180910390fd5b6109a783838361245a565b505050565b6000806109b8836126c0565b90508060000151915050919050565b60007f000000000000000000000000000000000000000000000000000000000000000073ffffffffffffffffffffffffffffffffffffffff163373ffffffffffffffffffffffffffffffffffffffff1614610a2157600080fd5b610a2b60066127aa565b6000610a3760066127c0565b9050610a4383826127ce565b6008839080600181540180825580915050600190039060005260206000200160009091909190916101000a81548173ffffffffffffffffffffffffffffffffffffffff021916908373ffffffffffffffffffffffffffffffffffffffff16021790555080600960008573ffffffffffffffffffffffffffffffffffffffff1673ffffffffffffffffffffffffffffffffffffffff16815260200190815260200160002081905550604051806101600160405280828152602001600760009054906101000a900473ffffffffffffffffffffffffffffffffffffffff1673ffffffffffffffffffffffffffffffffffffffff166309f210966040518163ffffffff1660e01b8152600401602060405180830381865afa158015610b69573d6000803e3d6000fd5b505050506040513d601f19601f82011682018060405250810190610b8d9190613f4e565b81526020018a815260200189815260200188815260200187815260200160006002811115610bbe57610bbd613a82565b5b81526020018473ffffffffffffffffffffffffffffffffffffffff16815260200186868080601f016020809104026020016040519081016040528093929190818152602001838380828437600081840152601f19601f82011690508083019250505050505050815260200142815260200142815250600a6000838152602001908152602001600020600082015181600001556020820151816001015560408201518160020155606082015181600301556080820151816004019081610c839190614127565b5060a0820151816005015560c08201518160060160006101000a81548160ff02191690836002811115610cb957610cb8613a82565b5b021790555060e08201518160060160016101000a81548173ffffffffffffffffffffffffffffffffffffffff021916908373ffffffffffffffffffffffffffffffffffffffff160217905550610100820151816007019081610d1b9190614127565b50610120820151816008015561014082015181600901559050507f017816d6671654d29260799b31a628be724d7e4fa8e22da3fae8ab443ec0a3c381604051610d6491906135c3565b60405180910390a180915050979650505050505050565b6000610d86826127ec565b9050919050565b610da8838383604051806020016040528060008152506117fa565b505050565b6000806002600084815260200190815260200160002060009054906101000a900473ffffffffffffffffffffffffffffffffffffffff169050600073ffffffffffffffffffffffffffffffffffffffff168173ffffffffffffffffffffffffffffffffffffffff1603610e55576040517f08c379a0000000000000000000000000000000000000000000000000000000008152600401610e4c90614245565b60405180910390fd5b80915050919050565b7f000000000000000000000000000000000000000000000000000000000000000073ffffffffffffffffffffffffffffffffffffffff163373ffffffffffffffffffffffffffffffffffffffff1614610eb657600080fd5b6000610ec1826126c0565b9050600015158160000151151503610f0e576040517f08c379a0000000000000000000000000000000000000000000000000000000008152600401610f05906142b1565b60405180910390fd5b60008160200151905061010060088054905010610f60576040517f08c379a0000000000000000000000000000000000000000000000000000000008152600401610f579061431d565b60405180910390fd5b60008190505b6001600880549050610f78919061436c565b811015611039576008600182610f8e91906143a0565b81548110610f9f57610f9e6143d4565b5b9060005260206000200160009054906101000a900473ffffffffffffffffffffffffffffffffffffffff1660088281548110610fde57610fdd6143d4565b5b9060005260206000200160006101000a81548173ffffffffffffffffffffffffffffffffffffffff021916908373ffffffffffffffffffffffffffffffffffffffff160217905550808061103190614403565b915050610f66565b50600880548061104c5761104b61444b565b5b6001900381819060005260206000200160006101000a81549073ffffffffffffffffffffffffffffffffffffffff02191690559055505050565b60008073ffffffffffffffffffffffffffffffffffffffff168273ffffffffffffffffffffffffffffffffffffffff16036110f6576040517f08c379a00000000000000000000000000000000000000000000000000000000081526004016110ed906144ec565b60405180910390fd5b600360008373ffffffffffffffffffffffffffffffffffffffff1673ffffffffffffffffffffffffffffffffffffffff168152602001908152602001600020549050919050565b6111478183611b70565b611186576040517f08c379a000000000000000000000000000000000000000000000000000000000815260040161117d90614558565b60405180910390fd5b6000600281111561119a57611199613a82565b5b600a600083815260200190815260200160002060060160009054906101000a900460ff1660028111156111d0576111cf613a82565b5b14611210576040517f08c379a0000000000000000000000000000000000000000000000000000000008152600401611207906145c4565b60405180910390fd5b6002600a600083815260200190815260200160002060060160006101000a81548160ff0219169083600281111561124a57611249613a82565b5b02179055507fcde9d14635b01f742aa20ce9f93d256582733620665d6a65adb0d7e99abcacae8160405161127e91906135c3565b60405180910390a15050565b7f000000000000000000000000000000000000000000000000000000000000000081565b60008160006112bc82612858565b116112fc576040517f08c379a00000000000000000000000000000000000000000000000000000000081526004016112f390614630565b60405180910390fd5b602061130782612858565b10611347576040517f08c379a000000000000000000000000000000000000000000000000000000000815260040161133e9061469c565b60405180910390fd5b60028081111561135a57611359613a82565b5b600a600087815260200190815260200160002060060160009054906101000a900460ff1660028111156113905761138f613a82565b5b146113d0576040517f08c379a00000000000000000000000000000000000000000000000000000000081526004016113c790614708565b60405180910390fd5b8373ffffffffffffffffffffffffffffffffffffffff16600a600087815260200190815260200160002060060160019054906101000a900473ffffffffffffffffffffffffffffffffffffffff1673ffffffffffffffffffffffffffffffffffffffff1603611474576040517f08c379a000000000000000000000000000000000000000000000000000000000815260040161146b90614774565b60405180910390fd5b600073ffffffffffffffffffffffffffffffffffffffff168473ffffffffffffffffffffffffffffffffffffffff16036114e3576040517f08c379a00000000000000000000000000000000000000000000000000000000081526004016114da906147e0565b60405180910390fd5b6000600a600087815260200190815260200160002060060160019054906101000a900473ffffffffffffffffffffffffffffffffffffffff16905084600a600088815260200190815260200160002060060160016101000a81548173ffffffffffffffffffffffffffffffffffffffff021916908373ffffffffffffffffffffffffffffffffffffffff16021790555083600a600088815260200190815260200160002060070190816115969190614127565b506000600a600088815260200190815260200160002060060160006101000a81548160ff021916908360028111156115d1576115d0613a82565b5b021790555042600a60008881526020019081526020016000206009018190555061163281600a600089815260200190815260200160002060060160019054906101000a900473ffffffffffffffffffffffffffffffffffffffff168861245a565b85925050509392505050565b60606001805461164d90613d52565b80601f016020809104026020016040519081016040528092919081815260200182805461167990613d52565b80156116c65780601f1061169b576101008083540402835291602001916116c6565b820191906000526020600020905b8154815290600101906020018083116116a957829003601f168201915b5050505050905090565b6000600960008373ffffffffffffffffffffffffffffffffffffffff1673ffffffffffffffffffffffffffffffffffffffff168152602001908152602001600020549050919050565b61172b611724612304565b8383612863565b5050565b7f000000000000000000000000000000000000000000000000000000000000000073ffffffffffffffffffffffffffffffffffffffff163373ffffffffffffffffffffffffffffffffffffffff161461178757600080fd5b6000600281111561179b5761179a613a82565b5b8160028111156117ae576117ad613a82565b5b146117b857600080fd5b80600a600084815260200190815260200160002060060160006101000a81548160ff021916908360028111156117f1576117f0613a82565b5b02179055505050565b61180b611805612304565b836123c5565b61184a576040517f08c379a000000000000000000000000000000000000000000000000000000000815260040161184190613f19565b60405180910390fd5b611856848484846129cf565b50505050565b6060611867826122b9565b6000611871612a2b565b9050600081511161189157604051806020016040528060008152506118bc565b8061189b84612a42565b6040516020016118ac92919061483c565b6040516020818303038152906040525b915050919050565b6118ce8183611b70565b6118d757600080fd5b6002808111156118ea576118e9613a82565b5b600a600083815260200190815260200160002060060160009054906101000a900460ff1660028111156119205761191f613a82565b5b14611960576040517f08c379a000000000000000000000000000000000000000000000000000000000815260040161195790614708565b60405180910390fd5b6000600a600083815260200190815260200160002060060160006101000a81548160ff0219169083600281111561199a57611999613a82565b5b02179055505050565b6000816119af816127ec565b6119ee576040517f08c379a00000000000000000000000000000000000000000000000000000000081526004016119e5906148ac565b60405180910390fd5b60016002811115611a0257611a01613a82565b5b600a600085815260200190815260200160002060060160009054906101000a900460ff166002811115611a3857611a37613a82565b5b14611a78576040517f08c379a0000000000000000000000000000000000000000000000000000000008152600401611a6f90614918565b60405180910390fd5b6001600a600085815260200190815260200160002060060160006101000a81548160ff02191690836002811115611ab257611ab1613a82565b5b021790555042600a6000858152602001908152602001600020600901819055506001915050919050565b6000600560008473ffffffffffffffffffffffffffffffffffffffff1673ffffffffffffffffffffffffffffffffffffffff16815260200190815260200160002060008373ffffffffffffffffffffffffffffffffffffffff1673ffffffffffffffffffffffffffffffffffffffff16815260200190815260200160002060009054906101000a900460ff16905092915050565b600082600960008473ffffffffffffffffffffffffffffffffffffffff1673ffffffffffffffffffffffffffffffffffffffff1681526020019081526020016000205403611bc15760019050611bc6565b600090505b92915050565b600081611bd8816127ec565b611c17576040517f08c379a0000000000000000000000000000000000000000000000000000000008152600401611c0e906148ac565b60405180910390fd5b600a600084815260200190815260200160002060050154915050919050565b60606008805480602002602001604051908101604052809291908181526020018280548015611cba57602002820191906000526020600020905b8160009054906101000a900473ffffffffffffffffffffffffffffffffffffffff1673ffffffffffffffffffffffffffffffffffffffff1681526020019060010190808311611c70575b5050505050905090565b6060600060088054905067ffffffffffffffff811115611ce757611ce661335e565b5b604051908082528060200260200182016040528015611d155781602001602082028036833780820191505090505b5090506000805b600880549050811015611e3c5760006009600060088481548110611d4357611d426143d4565b5b9060005260206000200160009054906101000a900473ffffffffffffffffffffffffffffffffffffffff1673ffffffffffffffffffffffffffffffffffffffff1673ffffffffffffffffffffffffffffffffffffffff168152602001908152602001600020549050600280811115611dbe57611dbd613a82565b5b600a600083815260200190815260200160002060060160009054906101000a900460ff166002811115611df457611df3613a82565b5b03611e285780848481518110611e0d57611e0c6143d4565b5b6020026020010181815250508280611e2490614403565b9350505b508080611e3490614403565b915050611d1c565b50819250505090565b600a602052806000526040600020600091509050806000015490806001015490806002015490806003015490806004018054611e8090613d52565b80601f0160208091040260200160405190810160405280929190818152602001828054611eac90613d52565b8015611ef95780601f10611ece57610100808354040283529160200191611ef9565b820191906000526020600020905b815481529060010190602001808311611edc57829003601f168201915b5050505050908060050154908060060160009054906101000a900460ff16908060060160019054906101000a900473ffffffffffffffffffffffffffffffffffffffff1690806007018054611f4d90613d52565b80601f0160208091040260200160405190810160405280929190818152602001828054611f7990613d52565b8015611fc65780601f10611f9b57610100808354040283529160200191611fc6565b820191906000526020600020905b815481529060010190602001808311611fa957829003601f168201915b505050505090806008015490806009015490508b565b611fe4612f8a565b81611fee816127ec565b61202d576040517f08c379a0000000000000000000000000000000000000000000000000000000008152600401612024906148ac565b60405180910390fd5b600a6000848152602001908152602001600020604051806101600160405290816000820154815260200160018201548152602001600282015481526020016003820154815260200160048201805461208490613d52565b80601f01602080910402602001604051908101604052809291908181526020018280546120b090613d52565b80156120fd5780601f106120d2576101008083540402835291602001916120fd565b820191906000526020600020905b8154815290600101906020018083116120e057829003601f168201915b50505050508152602001600582015481526020016006820160009054906101000a900460ff16600281111561213557612134613a82565b5b600281111561214757612146613a82565b5b81526020016006820160019054906101000a900473ffffffffffffffffffffffffffffffffffffffff1673ffffffffffffffffffffffffffffffffffffffff1673ffffffffffffffffffffffffffffffffffffffff1681526020016007820180546121b190613d52565b80601f01602080910402602001604051908101604052809291908181526020018280546121dd90613d52565b801561222a5780601f106121ff5761010080835404028352916020019161222a565b820191906000526020600020905b81548152906001019060200180831161220d57829003601f168201915b5050505050815260200160088201548152602001600982015481525050915050919050565b60007f01ffc9a7000000000000000000000000000000000000000000000000000000007bffffffffffffffffffffffffffffffffffffffffffffffffffffffff1916827bffffffffffffffffffffffffffffffffffffffffffffffffffffffff1916149050919050565b6122c2816127ec565b612301576040517f08c379a00000000000000000000000000000000000000000000000000000000081526004016122f890614245565b60405180910390fd5b50565b600033905090565b816004600083815260200190815260200160002060006101000a81548173ffffffffffffffffffffffffffffffffffffffff021916908373ffffffffffffffffffffffffffffffffffffffff160217905550808273ffffffffffffffffffffffffffffffffffffffff1661237f83610dad565b73ffffffffffffffffffffffffffffffffffffffff167f8c5be1e5ebec7d5bd14f71427d1e84f3dd0314c0f7b2291e5b200ac8c7c3b92560405160405180910390a45050565b6000806123d183610dad565b90508073ffffffffffffffffffffffffffffffffffffffff168473ffffffffffffffffffffffffffffffffffffffff16148061241357506124128185611adc565b5b8061245157508373ffffffffffffffffffffffffffffffffffffffff16612439846107ef565b73ffffffffffffffffffffffffffffffffffffffff16145b91505092915050565b8273ffffffffffffffffffffffffffffffffffffffff1661247a82610dad565b73ffffffffffffffffffffffffffffffffffffffff16146124d0576040517f08c379a00000000000000000000000000000000000000000000000000000000081526004016124c7906149aa565b60405180910390fd5b600073ffffffffffffffffffffffffffffffffffffffff168273ffffffffffffffffffffffffffffffffffffffff160361253f576040517f08c379a000000000000000000000000000000000000000000000000000000000815260040161253690614a3c565b60405180910390fd5b61254a838383612ba2565b61255560008261230c565b6001600360008573ffffffffffffffffffffffffffffffffffffffff1673ffffffffffffffffffffffffffffffffffffffff16815260200190815260200160002060008282546125a5919061436c565b925050819055506001600360008473ffffffffffffffffffffffffffffffffffffffff1673ffffffffffffffffffffffffffffffffffffffff16815260200190815260200160002060008282546125fc91906143a0565b92505081905550816002600083815260200190815260200160002060006101000a81548173ffffffffffffffffffffffffffffffffffffffff021916908373ffffffffffffffffffffffffffffffffffffffff160217905550808273ffffffffffffffffffffffffffffffffffffffff168473ffffffffffffffffffffffffffffffffffffffff167fddf252ad1be2c89b69c2b068fc378daa952ba7f163c4a11628f55a4df523b3ef60405160405180910390a46126bb838383612ba7565b505050565b6126c861300c565b60005b600880549050811015612782578273ffffffffffffffffffffffffffffffffffffffff1660088281548110612703576127026143d4565b5b9060005260206000200160009054906101000a900473ffffffffffffffffffffffffffffffffffffffff1673ffffffffffffffffffffffffffffffffffffffff160361276f576000604051806040016040528060011515815260200183815250905080925050506127a5565b808061277a90614403565b9150506126cb565b506000604051806040016040528060001515815260200160008152509050809150505b919050565b6001816000016000828254019250508190555050565b600081600001549050919050565b6127e8828260405180602001604052806000815250612bac565b5050565b60008073ffffffffffffffffffffffffffffffffffffffff166002600084815260200190815260200160002060009054906101000a900473ffffffffffffffffffffffffffffffffffffffff1673ffffffffffffffffffffffffffffffffffffffff1614159050919050565b600081519050919050565b8173ffffffffffffffffffffffffffffffffffffffff168373ffffffffffffffffffffffffffffffffffffffff16036128d1576040517f08c379a00000000000000000000000000000000000000000000000000000000081526004016128c890614aa8565b60405180910390fd5b80600560008573ffffffffffffffffffffffffffffffffffffffff1673ffffffffffffffffffffffffffffffffffffffff16815260200190815260200160002060008473ffffffffffffffffffffffffffffffffffffffff1673ffffffffffffffffffffffffffffffffffffffff16815260200190815260200160002060006101000a81548160ff0219169083151502179055508173ffffffffffffffffffffffffffffffffffffffff168373ffffffffffffffffffffffffffffffffffffffff167f17307eab39ab6107e8899845ad3d59bd9653f200f220920489ca2b5937696c31836040516129c291906130dc565b60405180910390a3505050565b6129da84848461245a565b6129e684848484612c07565b612a25576040517f08c379a0000000000000000000000000000000000000000000000000000000008152600401612a1c90614b3a565b60405180910390fd5b50505050565b606060405180602001604052806000815250905090565b606060008203612a89576040518060400160405280600181526020017f30000000000000000000000000000000000000000000000000000000000000008152509050612b9d565b600082905060005b60008214612abb578080612aa490614403565b915050600a82612ab49190614b89565b9150612a91565b60008167ffffffffffffffff811115612ad757612ad661335e565b5b6040519080825280601f01601f191660200182016040528015612b095781602001600182028036833780820191505090505b5090505b60008514612b9657600182612b22919061436c565b9150600a85612b319190614bba565b6030612b3d91906143a0565b60f81b818381518110612b5357612b526143d4565b5b60200101907effffffffffffffffffffffffffffffffffffffffffffffffffffffffffffff1916908160001a905350600a85612b8f9190614b89565b9450612b0d565b8093505050505b919050565b505050565b505050565b612bb68383612d8e565b612bc36000848484612c07565b612c02576040517f08c379a0000000000000000000000000000000000000000000000000000000008152600401612bf990614b3a565b60405180910390fd5b505050565b6000612c288473ffffffffffffffffffffffffffffffffffffffff16612f67565b15612d81578373ffffffffffffffffffffffffffffffffffffffff1663150b7a02612c51612304565b8786866040518563ffffffff1660e01b8152600401612c739493929190614c40565b6020604051808303816000875af1925050508015612caf57506040513d601f19601f82011682018060405250810190612cac9190614ca1565b60015b612d31573d8060008114612cdf576040519150601f19603f3d011682016040523d82523d6000602084013e612ce4565b606091505b506000815103612d29576040517f08c379a0000000000000000000000000000000000000000000000000000000008152600401612d2090614b3a565b60405180910390fd5b805181602001fd5b63150b7a0260e01b7bffffffffffffffffffffffffffffffffffffffffffffffffffffffff1916817bffffffffffffffffffffffffffffffffffffffffffffffffffffffff191614915050612d86565b600190505b949350505050565b600073ffffffffffffffffffffffffffffffffffffffff168273ffffffffffffffffffffffffffffffffffffffff1603612dfd576040517f08c379a0000000000000000000000000000000000000000000000000000000008152600401612df490614d1a565b60405180910390fd5b612e06816127ec565b15612e46576040517f08c379a0000000000000000000000000000000000000000000000000000000008152600401612e3d90614d86565b60405180910390fd5b612e5260008383612ba2565b6001600360008473ffffffffffffffffffffffffffffffffffffffff1673ffffffffffffffffffffffffffffffffffffffff1681526020019081526020016000206000828254612ea291906143a0565b92505081905550816002600083815260200190815260200160002060006101000a81548173ffffffffffffffffffffffffffffffffffffffff021916908373ffffffffffffffffffffffffffffffffffffffff160217905550808273ffffffffffffffffffffffffffffffffffffffff16600073ffffffffffffffffffffffffffffffffffffffff167fddf252ad1be2c89b69c2b068fc378daa952ba7f163c4a11628f55a4df523b3ef60405160405180910390a4612f6360008383612ba7565b5050565b6000808273ffffffffffffffffffffffffffffffffffffffff163b119050919050565b60405180610160016040528060008152602001600081526020016000815260200160008152602001606081526020016000815260200160006002811115612fd457612fd3613a82565b5b8152602001600073ffffffffffffffffffffffffffffffffffffffff1681526020016060815260200160008152602001600081525090565b6040518060400160405280600015158152602001600081525090565b6000604051905090565b600080fd5b600080fd5b60007fffffffff0000000000000000000000000000000000000000000000000000000082169050919050565b6130718161303c565b811461307c57600080fd5b50565b60008135905061308e81613068565b92915050565b6000602082840312156130aa576130a9613032565b5b60006130b88482850161307f565b91505092915050565b60008115159050919050565b6130d6816130c1565b82525050565b60006020820190506130f160008301846130cd565b92915050565b600081519050919050565b600082825260208201905092915050565b60005b83811015613131578082015181840152602081019050613116565b60008484015250505050565b6000601f19601f8301169050919050565b6000613159826130f7565b6131638185613102565b9350613173818560208601613113565b61317c8161313d565b840191505092915050565b600060208201905081810360008301526131a1818461314e565b905092915050565b6000819050919050565b6131bc816131a9565b81146131c757600080fd5b50565b6000813590506131d9816131b3565b92915050565b6000602082840312156131f5576131f4613032565b5b6000613203848285016131ca565b91505092915050565b600073ffffffffffffffffffffffffffffffffffffffff82169050919050565b60006132378261320c565b9050919050565b6132478161322c565b82525050565b6000602082019050613262600083018461323e565b92915050565b6132718161322c565b811461327c57600080fd5b50565b60008135905061328e81613268565b92915050565b600080604083850312156132ab576132aa613032565b5b60006132b98582860161327f565b92505060206132ca858286016131ca565b9150509250929050565b6000806000606084860312156132ed576132ec613032565b5b60006132fb8682870161327f565b935050602061330c8682870161327f565b925050604061331d868287016131ca565b9150509250925092565b60006020828403121561333d5761333c613032565b5b600061334b8482850161327f565b91505092915050565b600080fd5b600080fd5b7f4e487b7100000000000000000000000000000000000000000000000000000000600052604160045260246000fd5b6133968261313d565b810181811067ffffffffffffffff821117156133b5576133b461335e565b5b80604052505050565b60006133c8613028565b90506133d4828261338d565b919050565b600067ffffffffffffffff8211156133f4576133f361335e565b5b6133fd8261313d565b9050602081019050919050565b82818337600083830152505050565b600061342c613427846133d9565b6133be565b90508281526020810184848401111561344857613447613359565b5b61345384828561340a565b509392505050565b600082601f8301126134705761346f613354565b5b8135613480848260208601613419565b91505092915050565b600080fd5b600080fd5b60008083601f8401126134a9576134a8613354565b5b8235905067ffffffffffffffff8111156134c6576134c5613489565b5b6020830191508360018202830111156134e2576134e161348e565b5b9250929050565b600080600080600080600060c0888a03121561350857613507613032565b5b60006135168a828b016131ca565b97505060206135278a828b016131ca565b965050604088013567ffffffffffffffff81111561354857613547613037565b5b6135548a828b0161345b565b95505060606135658a828b016131ca565b945050608088013567ffffffffffffffff81111561358657613585613037565b5b6135928a828b01613493565b935093505060a06135a58a828b0161327f565b91505092959891949750929550565b6135bd816131a9565b82525050565b60006020820190506135d860008301846135b4565b92915050565b6000806000606084860312156135f7576135f6613032565b5b6000613605868287016131ca565b93505060206136168682870161327f565b925050604084013567ffffffffffffffff81111561363757613636613037565b5b6136438682870161345b565b9150509250925092565b613656816130c1565b811461366157600080fd5b50565b6000813590506136738161364d565b92915050565b600080604083850312156136905761368f613032565b5b600061369e8582860161327f565b92505060206136af85828601613664565b9150509250929050565b600381106136c657600080fd5b50565b6000813590506136d8816136b9565b92915050565b600080604083850312156136f5576136f4613032565b5b6000613703858286016131ca565b9250506020613714858286016136c9565b9150509250929050565b600067ffffffffffffffff8211156137395761373861335e565b5b6137428261313d565b9050602081019050919050565b600061376261375d8461371e565b6133be565b90508281526020810184848401111561377e5761377d613359565b5b61378984828561340a565b509392505050565b600082601f8301126137a6576137a5613354565b5b81356137b684826020860161374f565b91505092915050565b600080600080608085870312156137d9576137d8613032565b5b60006137e78782880161327f565b94505060206137f88782880161327f565b9350506040613809878288016131ca565b925050606085013567ffffffffffffffff81111561382a57613829613037565b5b61383687828801613791565b91505092959194509250565b6000806040838503121561385957613858613032565b5b60006138678582860161327f565b92505060206138788582860161327f565b9150509250929050565b6000806040838503121561389957613898613032565b5b60006138a7858286016131ca565b92505060206138b88582860161327f565b9150509250929050565b600081519050919050565b600082825260208201905092915050565b6000819050602082019050919050565b6138f78161322c565b82525050565b600061390983836138ee565b60208301905092915050565b6000602082019050919050565b600061392d826138c2565b61393781856138cd565b9350613942836138de565b8060005b8381101561397357815161395a88826138fd565b975061396583613915565b925050600181019050613946565b5085935050505092915050565b6000602082019050818103600083015261399a8184613922565b905092915050565b600081519050919050565b600082825260208201905092915050565b6000819050602082019050919050565b6139d7816131a9565b82525050565b60006139e983836139ce565b60208301905092915050565b6000602082019050919050565b6000613a0d826139a2565b613a1781856139ad565b9350613a22836139be565b8060005b83811015613a53578151613a3a88826139dd565b9750613a45836139f5565b925050600181019050613a26565b5085935050505092915050565b60006020820190508181036000830152613a7a8184613a02565b905092915050565b7f4e487b7100000000000000000000000000000000000000000000000000000000600052602160045260246000fd5b60038110613ac257613ac1613a82565b5b50565b6000819050613ad382613ab1565b919050565b6000613ae382613ac5565b9050919050565b613af381613ad8565b82525050565b600061016082019050613b0f600083018e6135b4565b613b1c602083018d6135b4565b613b29604083018c6135b4565b613b36606083018b6135b4565b8181036080830152613b48818a61314e565b9050613b5760a08301896135b4565b613b6460c0830188613aea565b613b7160e083018761323e565b818103610100830152613b84818661314e565b9050613b946101208301856135b4565b613ba26101408301846135b4565b9c9b505050505050505050505050565b600082825260208201905092915050565b6000613bce826130f7565b613bd88185613bb2565b9350613be8818560208601613113565b613bf18161313d565b840191505092915050565b613c0581613ad8565b82525050565b600061016083016000830151613c2460008601826139ce565b506020830151613c3760208601826139ce565b506040830151613c4a60408601826139ce565b506060830151613c5d60608601826139ce565b5060808301518482036080860152613c758282613bc3565b91505060a0830151613c8a60a08601826139ce565b5060c0830151613c9d60c0860182613bfc565b5060e0830151613cb060e08601826138ee565b50610100830151848203610100860152613cca8282613bc3565b915050610120830151613ce16101208601826139ce565b50610140830151613cf66101408601826139ce565b508091505092915050565b60006020820190508181036000830152613d1b8184613c0b565b905092915050565b7f4e487b7100000000000000000000000000000000000000000000000000000000600052602260045260246000fd5b60006002820490506001821680613d6a57607f821691505b602082108103613d7d57613d7c613d23565b5b50919050565b7f4552433732313a20617070726f76616c20746f2063757272656e74206f776e6560008201527f7200000000000000000000000000000000000000000000000000000000000000602082015250565b6000613ddf602183613102565b9150613dea82613d83565b604082019050919050565b60006020820190508181036000830152613e0e81613dd2565b9050919050565b7f4552433732313a20617070726f76652063616c6c6572206973206e6f7420746f60008201527f6b656e206f776e6572206e6f7220617070726f76656420666f7220616c6c0000602082015250565b6000613e71603e83613102565b9150613e7c82613e15565b604082019050919050565b60006020820190508181036000830152613ea081613e64565b9050919050565b7f4552433732313a2063616c6c6572206973206e6f7420746f6b656e206f776e6560008201527f72206e6f7220617070726f766564000000000000000000000000000000000000602082015250565b6000613f03602e83613102565b9150613f0e82613ea7565b604082019050919050565b60006020820190508181036000830152613f3281613ef6565b9050919050565b600081519050613f48816131b3565b92915050565b600060208284031215613f6457613f63613032565b5b6000613f7284828501613f39565b91505092915050565b60008190508160005260206000209050919050565b60006020601f8301049050919050565b600082821b905092915050565b600060088302613fdd7fffffffffffffffffffffffffffffffffffffffffffffffffffffffffffffffff82613fa0565b613fe78683613fa0565b95508019841693508086168417925050509392505050565b6000819050919050565b600061402461401f61401a846131a9565b613fff565b6131a9565b9050919050565b6000819050919050565b61403e83614009565b61405261404a8261402b565b848454613fad565b825550505050565b600090565b61406761405a565b614072818484614035565b505050565b5b818110156140965761408b60008261405f565b600181019050614078565b5050565b601f8211156140db576140ac81613f7b565b6140b584613f90565b810160208510156140c4578190505b6140d86140d085613f90565b830182614077565b50505b505050565b600082821c905092915050565b60006140fe600019846008026140e0565b1980831691505092915050565b600061411783836140ed565b9150826002028217905092915050565b614130826130f7565b67ffffffffffffffff8111156141495761414861335e565b5b6141538254613d52565b61415e82828561409a565b600060209050601f831160018114614191576000841561417f578287015190505b614189858261410b565b8655506141f1565b601f19841661419f86613f7b565b60005b828110156141c7578489015182556001820191506020850194506020810190506141a2565b868310156141e457848901516141e0601f8916826140ed565b8355505b6001600288020188555050505b505050505050565b7f4552433732313a20696e76616c696420746f6b656e2049440000000000000000600082015250565b600061422f601883613102565b915061423a826141f9565b602082019050919050565b6000602082019050818103600083015261425e81614222565b9050919050565b7f4275796572206e6f7420666f756e640000000000000000000000000000000000600082015250565b600061429b600f83613102565b91506142a682614265565b602082019050919050565b600060208201905081810360008301526142ca8161428e565b9050919050565b7f696e76616c696420696e64657800000000000000000000000000000000000000600082015250565b6000614307600d83613102565b9150614312826142d1565b602082019050919050565b60006020820190508181036000830152614336816142fa565b9050919050565b7f4e487b7100000000000000000000000000000000000000000000000000000000600052601160045260246000fd5b6000614377826131a9565b9150614382836131a9565b925082820390508181111561439a5761439961433d565b5b92915050565b60006143ab826131a9565b91506143b6836131a9565b92508282019050808211156143ce576143cd61433d565b5b92915050565b7f4e487b7100000000000000000000000000000000000000000000000000000000600052603260045260246000fd5b600061440e826131a9565b91507fffffffffffffffffffffffffffffffffffffffffffffffffffffffffffffffff82036144405761443f61433d565b5b600182019050919050565b7f4e487b7100000000000000000000000000000000000000000000000000000000600052603160045260246000fd5b7f4552433732313a2061646472657373207a65726f206973206e6f74206120766160008201527f6c6964206f776e65720000000000000000000000000000000000000000000000602082015250565b60006144d6602983613102565b91506144e18261447a565b604082019050919050565b60006020820190508181036000830152614505816144c9565b9050919050565b7f4e6f742061206275796572000000000000000000000000000000000000000000600082015250565b6000614542600b83613102565b915061454d8261450c565b602082019050919050565b6000602082019050818103600083015261457181614535565b9050919050565b7f5469636b6574206973206e6f7420726561647900000000000000000000000000600082015250565b60006145ae601383613102565b91506145b982614578565b602082019050919050565b600060208201905081810360008301526145dd816145a1565b9050919050565b7f4e616d6520697320656d70747900000000000000000000000000000000000000600082015250565b600061461a600d83613102565b9150614625826145e4565b602082019050919050565b600060208201905081810360008301526146498161460d565b9050919050565b7f4e616d6520697320746f6f206c6f6e6700000000000000000000000000000000600082015250565b6000614686601083613102565b915061469182614650565b602082019050919050565b600060208201905081810360008301526146b581614679565b9050919050565b7f5469636b6574206973206e6f74207472616461626c6500000000000000000000600082015250565b60006146f2601683613102565b91506146fd826146bc565b602082019050919050565b60006020820190508181036000830152614721816146e5565b9050919050565b7f596f752063616e6e6f742062757920796f7572206f776e207469636b65740000600082015250565b600061475e601e83613102565b915061476982614728565b602082019050919050565b6000602082019050818103600083015261478d81614751565b9050919050565b7f696e76616c696420616464726573730000000000000000000000000000000000600082015250565b60006147ca600f83613102565b91506147d582614794565b602082019050919050565b600060208201905081810360008301526147f9816147bd565b9050919050565b600081905092915050565b6000614816826130f7565b6148208185614800565b9350614830818560208601613113565b80840191505092915050565b6000614848828561480b565b9150614854828461480b565b91508190509392505050565b7f5469636b657420646f6573206e6f742065786973740000000000000000000000600082015250565b6000614896601583613102565b91506148a182614860565b602082019050919050565b600060208201905081810360008301526148c581614889565b9050919050565b7f5469636b657420697320616c726561647920636865636b656420696e00000000600082015250565b6000614902601c83613102565b915061490d826148cc565b602082019050919050565b60006020820190508181036000830152614931816148f5565b9050919050565b7f4552433732313a207472616e736665722066726f6d20696e636f72726563742060008201527f6f776e6572000000000000000000000000000000000000000000000000000000602082015250565b6000614994602583613102565b915061499f82614938565b604082019050919050565b600060208201905081810360008301526149c381614987565b9050919050565b7f4552433732313a207472616e7366657220746f20746865207a65726f2061646460008201527f7265737300000000000000000000000000000000000000000000000000000000602082015250565b6000614a26602483613102565b9150614a31826149ca565b604082019050919050565b60006020820190508181036000830152614a5581614a19565b9050919050565b7f4552433732313a20617070726f766520746f2063616c6c657200000000000000600082015250565b6000614a92601983613102565b9150614a9d82614a5c565b602082019050919050565b60006020820190508181036000830152614ac181614a85565b9050919050565b7f4552433732313a207472616e7366657220746f206e6f6e20455243373231526560008201527f63656976657220696d706c656d656e7465720000000000000000000000000000602082015250565b6000614b24603283613102565b9150614b2f82614ac8565b604082019050919050565b60006020820190508181036000830152614b5381614b17565b9050919050565b7f4e487b7100000000000000000000000000000000000000000000000000000000600052601260045260246000fd5b6000614b94826131a9565b9150614b9f836131a9565b925082614baf57614bae614b5a565b5b828204905092915050565b6000614bc5826131a9565b9150614bd0836131a9565b925082614be057614bdf614b5a565b5b828206905092915050565b600081519050919050565b600082825260208201905092915050565b6000614c1282614beb565b614c1c8185614bf6565b9350614c2c818560208601613113565b614c358161313d565b840191505092915050565b6000608082019050614c55600083018761323e565b614c62602083018661323e565b614c6f60408301856135b4565b8181036060830152614c818184614c07565b905095945050505050565b600081519050614c9b81613068565b92915050565b600060208284031215614cb757614cb6613032565b5b6000614cc584828501614c8c565b91505092915050565b7f4552433732313a206d696e7420746f20746865207a65726f2061646472657373600082015250565b6000614d04602083613102565b9150614d0f82614cce565b602082019050919050565b60006020820190508181036000830152614d3381614cf7565b9050919050565b7f4552433732313a20746f6b656e20616c7265616479206d696e74656400000000600082015250565b6000614d70601c83613102565b9150614d7b82614d3a565b602082019050919050565b60006020820190508181036000830152614d9f81614d63565b905091905056fea2646970667358221220c1e373cb945f3789061b7b58b6258d4655b6f8dd05bad43eacd5b1ce53cbee0664736f6c63430008110033",
  "linkReferences": {},
  "deployedLinkReferences": {}
}