{
  "_format": "hh-sol-artifact-1",
  "contractName": "Utils",
  "sourceName": "contracts/Utils.sol",
  "abi": [
    {
      "inputs": [
        {
          "internalType": "bytes32",
          "name": "_ethSignedMessageHash",
          "type": "bytes32"
        },
        {
          "internalType": "bytes",
          "name": "_signature",
          "type": "bytes"
        }
      ],
      "name": "verifySign",
      "outputs": [
        {
          "internalType": "address",
          "name": "",
          "type": "address"
        }
      ],
      "stateMutability": "pure",
      "type": "function"
    }
  ],
  "bytecode": "0x6103f9610053600b82828239805160001a607314610046577f4e487b7100000000000000000000000000000000000000000000000000000000600052600060045260246000fd5b30600052607381538281f3fe73000000000000000000000000000000000000000030146080604052600436106100355760003560e01c80633231a7f01461003a575b600080fd5b610054600480360381019061004f919061029b565b61006a565b6040516100619190610338565b60405180910390f35b600080600080610079856100d9565b925092509250600186848484604051600081526020016040526040516100a2949392919061037e565b6020604051602081039080840390855afa1580156100c4573d6000803e3d6000fd5b50505060206040510351935050505092915050565b600080600060418451146100ec57600080fd5b6020840151915060408401519050606084015160001a92509193909250565b6000604051905090565b600080fd5b600080fd5b6000819050919050565b6101328161011f565b811461013d57600080fd5b50565b60008135905061014f81610129565b92915050565b600080fd5b600080fd5b6000601f19601f8301169050919050565b7f4e487b7100000000000000000000000000000000000000000000000000000000600052604160045260246000fd5b6101a88261015f565b810181811067ffffffffffffffff821117156101c7576101c6610170565b5b80604052505050565b60006101da61010b565b90506101e6828261019f565b919050565b600067ffffffffffffffff82111561020657610205610170565b5b61020f8261015f565b9050602081019050919050565b82818337600083830152505050565b600061023e610239846101eb565b6101d0565b90508281526020810184848401111561025a5761025961015a565b5b61026584828561021c565b509392505050565b600082601f83011261028257610281610155565b5b813561029284826020860161022b565b91505092915050565b600080604083850312156102b2576102b1610115565b5b60006102c085828601610140565b925050602083013567ffffffffffffffff8111156102e1576102e061011a565b5b6102ed8582860161026d565b9150509250929050565b600073ffffffffffffffffffffffffffffffffffffffff82169050919050565b6000610322826102f7565b9050919050565b61033281610317565b82525050565b600060208201905061034d6000830184610329565b92915050565b61035c8161011f565b82525050565b600060ff82169050919050565b61037881610362565b82525050565b60006080820190506103936000830187610353565b6103a0602083018661036f565b6103ad6040830185610353565b6103ba6060830184610353565b9594505050505056fea2646970667358221220183adb60741131b157886317d4b8918aaafa96af8fde41f44b66baa13504281964736f6c63430008110033",
  "linkReferences": {},
  "deployedLinkReferences": {}
}